S0170000303731365F41746D656761546573742E73726563F1
S113000045C00000EBC0000051C000004FC000001C
S11300104DC000004BC0000049C0000047C00000B4
S113002045C0000043C0000041C000003FC00000C4
S11300303DC000003BC00000A8C0000037C0000065
S113004035C0000033C0000031C000002FC00000E4
S11300502DC000002BC0000029C0000027C00000F4
S113006025C0000023C0000021C000001FC0000004
S11300701DC000001BC0000019C0000017C0000014
S113008015C0000013C0000011C0000011241FBEE1
S1130090CFEFD0E1DEBFCDBF21E0A0E0B1E001C0F1
S11300A01D92AC32B207E1F702D046C1A9CF82E07B
S11300B08EBD87B7846087BF80E398EF9DBD8CBDFC
S11300C082E880938B008AE180938A0010928C00EE
S11300D080E49CE990938100809380008FE082B952
S11300E085E580936A0081E08ABF8FE189BF7894B7
S11300F011BA83E087BB88BB409100015091010194
S113010060910201709103018CED95E0A0E0B0E0F4
S1130110841B950BA60BB70B52F4B095A095909544
S113012081959F4FAF4FBF4F21E028BB02C023E012
S113013028BB84369105A105B1051CF480E090E04C
S1130140DC01BB231CF480E090E0DC019C01AD01E8
S1130150213981E038074105510524F020E931E0D7
S113016040E050E0A0EABFE0ACD020E931E040E05C
S113017050E08BD0DA01C90188519C4FAF4FBF4F7B
S11301809093870080938600FFCF1F920F920FB643
S11301900F9211248F939F93AF93BF9380EE91EBB3
S11301A09DBD8CBD8091280190912901A0912A01C7
S11301B0B0912B010196A11DB11D8093280190934C
S11301C02901A0932A01B0932B01BF91AF919F9174
S11301D08F910F900FBE0F901F9018951F920F9242
S11301E00FB60F9211240F931F932F933F934F93A6
S11301F05F936F937F938F939F93AF93BF93809BF2
S113020011C08091280190912901A0912A01B091F7
S11302102B018093140190931501A0931601B093C0
S1130220170122C08091140190911501A09116012B
S1130230B09117010097A105B105B1F040912801D3
S11302405091290160912A0170912B018A019B012F
S1130250081B190B2A0B3B0B00930001109301019F
S11302602093020130930301BF91AF919F918F912D
S11302707F916F915F914F913F912F911F910F91BA
S11302800F900FBE0F901F901895052E97FB16F434
S113029000940FD057FD05D01ED007FC02D046F4C1
S11302A008C050954095309521953F4F4F4F5F4F73
S11302B0089590958095709561957F4F8F4F9F4FCE
S11302C008952BD0A59F900DB49F900DA49F800DF1
S11302D0911D11240895A1E21A2EAA1BBB1BFD0136
S11302E00DC0AA1FBB1FEE1FFF1FA217B307E40711
S11302F0F50720F0A21BB30BE40BF50B661F771F69
S1130300881F991F1A9469F7609570958095909548
S11303109B01AC01BD01CF010895A29FB001B39F21
S1130320C001A39F700D811D1124911DB29F700DFA
S10F0330811D1124911D0895F894FFCF45
S9030000FC
