S01C0000303730395F4144435F426567696E6E696E7430312E73726563B3
S113000045C000004BC0000049C0000047C00000CC
S113001045C0000043C0000041C000003FC00000D4
S11300203DC000003BC0000039C0000037C00000E4
S113003035C0000033C0000031C000002FC00000F4
S11300402DC000002BC0000029C0000027C0000004
S113005025C0000023C0000021C000001FC0000014
S11300601DC000001BC0000019C0000017C0000024
S113007015C0000013C0000011C000000FC0000034
S11300800DC000000BC0000009C0000011241FBEF9
S1130090CFEFD0E1DEBFCDBF02D0F9C1B1CFCF9356
S11300A0DF93CDB7DEB72E970FB6F894DEBF0FBE41
S11300B0CDBF8BE290E0FC0110828AE290E028E060
S11300C0FC01208385E990E026E0FC01208380E99F
S11300D090E0FC01108289E290E027E6FC01208395
S11300E086E290E027E8FC01208387E290E020E4A8
S11300F0FC01208386E290E026E230E0F9012081D1
S11301002064FC012083000086E290E0FC018081F1
S1130110882F90E080749927892BB1F786E290E0CC
S113012026E230E0F90120812061FC0120838FEF79
S113013090E086D084E290E0FC018081882F90E0FA
S11301407FD085E290E0FC018081882F90E078D018
S113015000008BE290E0FC018081882F90E08072A7
S11301609927892BB1F380E090E0A8ECB2E489836D
S11301709A83AB83BC8320E030E04AE755E469818D
S11301807A818B819C81F8D0DC01CB018D839E83A5
S1130190AF83B88720E030E040E85FE36D817E8183
S11301A08F81988568D088232CF481E090E09A8729
S11301B089873BC020E03FEF4FE757E46D817E81A4
S11301C08F819885D5D018163CF520E030E040E2C8
S11301D051E469817A818B819C81CED0DC01CB0191
S11301E0BC01CD014CD0DC01CB019A8789870FC0BB
S11301F080E991E09C878B878B859C850197F1F73B
S11302009C878B8789859A8501979A8789878985B1
S11302109A85892B69F713C06D817E818F819885BA
S11302202ED0DC01CB019A87898789859A859E87A0
S11302308D878D859E850197F1F79E878D875ACF8F
S1130240CF93DF931F92CDB7DEB7898300008BE293
S113025090E0FC018081882F90E080729927892B9F
S1130260B1F38CE290E02981FC01208300000F901F
S1130270DF91CF9108952FD008F481E0089557D0ED
S113028088F09F5790F0B92F9927B751A0F0D1F07B
S1130290660F771F881F991F1AF0BA95C9F712C005
S11302A0B13081F05ED0B1E008955BC0672F782F44
S11302B08827B85F39F0B93FCCF386957795679571
S11302C0B395D9F73EF490958095709561957F4FDD
S11302D08F4F9F4F0895990F0008550FAA0BE0E820
S11302E0FEEF16161706E807F907C0F012161306F4
S11302F0E407F50798F0621B730B840B950B39F434
S11303000A2661F0232B242B252B21F408950A2699
S113031009F4A140A6958FEF811D811D089557FD15
S11303209058440F551F59F05F3F71F04795880F5F
S113033097FB991F61F09F3F79F0879508951216F6
S113034013061406551FF2CF4695F1DF08C01616A2
S113035017061806991FF1CF869571056105089453
S11303600895E894BB2766277727CB0197F908956A
S1130370B2DF08F48FEF08950BD078C069D028F06D
S11303806ED018F0952309F05AC05FC01124EACF4B
S1130390C6DFA0F3959FD1F3950F50E0551F629FE0
S11303A0F001729FBB27F00DB11D639FAA27F00DCA
S11303B0B11DAA1F649F6627B00DA11D661F829FF1
S11303C02227B00DA11D621F739FB00DA11D621FD6
S11303D0839FA00D611D221F749F3327A00D611DF3
S11303E0231F849F600D211D822F762F6A2F1124D5
S11303F09F5750408AF0E1F088234AF0EE0FFF1F28
S1130400BB1F661F771F881F91505040A9F79E3F5E
S1130410510570F014C0A6CF5F3FECF3983EDCF3B7
S1130420869577956795B795F795E7959F5FC1F79B
S1130430FE2B880F911D9695879597F9089597F946
S11304409F6780E870E060E008959FEF80EC089576
S113045000240A941616170618060906089500249F
S11304600A9412161306140605060895092E039419
S1130470000C11F4882352F0BB0F40F4BF2B11F48D
S113048060FF04C06F5F7F4F8F4F9F4F0895F894B4
S1050490FFCF98
S9030000FC
