:1000000045C000004BC0000049C0000047C00000D0
:1000100045C0000043C0000041C000003FC00000D8
:100020003DC000003BC0000039C0000037C00000E8
:1000300035C0000033C0000031C000002FC00000F8
:100040002DC000002BC00000F0C2000027C000003F
:1000500025C0000023C0000021C000001FC0000018
:100060001DC000001BC0000019C0000017C0000028
:1000700015C0000013C0000011C000000FC0000038
:100080000DC000000BC0000009C0000011241FBEFD
:10009000CFEFD0E1DEBFCDBF02D0E5C4B1CF0F932B
:1000A0001F93CF93DF93CDB7DEB7C654D1090FB6F8
:1000B000F894DEBF0FBECDBF8BE290E0FC01108252
:1000C0008AE290E028E9FC01208385E990E026E0BF
:1000D000FC01208380E990E0FC01108289E290E03D
:1000E00027E6FC0120838BE990E0FC0110828AE97D
:1000F00090E028E0FC0120838DE990E026E0FC01FF
:10010000208388E990E0FC01108289E990E027E6ED
:10011000FC012083789480E090E0AAE7B4E489832E
:100120009A83AB83BC8320E030E04AE755E46981E1
:100130007A818B819C810CD4DC01CB019E01235CF4
:100140003F4FF90180839183A283B38320E030E0A5
:1001500040E85FE3CE01CD96FC0160817181828130
:10016000938175D388234CF4CE018F5B9F4F21E0A0
:1001700030E0FC013183208363C020E03FEF4FE794
:1001800057E4CE01CD96FC0160817181828193811B
:10019000DBD318160CF044C020E030E040E251E41C
:1001A00069817A818B819C81D3D3DC01CB018E0163
:1001B0000F5B1F4FBC01CD014ED3DC01CB01F80119
:1001C0009183808324C0CE018D5B9F4F20E931E075
:1001D000FC0131832083CE018D5B9F4FFC01808128
:1001E00091810197F1F79E012D5B3F4FF9019183BA
:1001F0008083CE018F5B9F4F9E012F5B3F4FF901A4
:100200002081318121503109FC0131832083CE01CD
:100210008F5B9F4FFC0180819181892BA1F62AC0C1
:100220008E010F5B1F4FCE01CD96FC016081718165
:100230008281938110D3DC01CB01F801918380830B
:10024000CE018B5B9F4F9E012F5B3F4FF9012081B9
:100250003181FC0131832083CE018B5B9F4FFC01F8
:10026000808191810197F1F79E012B5B3F4FF9014E
:100270009183808380E090E0A8ECB2E48D839E833C
:10028000AF83B88720E030E04AE755E46D817E8196
:100290008F8198855DD3DC01CB018BAB9CABADAB83
:1002A000BEAB20E030E040E85FE36BA97CA98DA9FC
:1002B0009EA9CDD288232CF481E090E098AF8FAB3B
:1002C0003BC020E03FEF4FE757E46BA97CA98DA925
:1002D0009EA93AD318163CF520E030E040E251E404
:1002E0006D817E818F81988533D3DC01CB01BC0188
:1002F000CD01B1D2DC01CB0198AF8FAB0FC080E94B
:1003000091E09AAF89AF89AD9AAD0197F1F79AAFB5
:1003100089AF8FA998AD019798AF8FAB8FA998AD92
:10032000892B69F713C06BA97CA98DA99EA993D2CB
:10033000DC01CB0198AF8FAB8FA998AD9CAF8BAF91
:100340008BAD9CAD0197F1F79CAF8BAF62E070E095
:1003500089E090E01CD280E090E0A8ECB2E48987CC
:100360009A87AB87BC8720E030E04AE755E469858F
:100370007A858B859C85ECD2DC01CB0189A79AA775
:10038000ABA7BCA720E030E040E85FE369A57AA511
:100390008BA59CA55CD288232CF481E090E09EA7DD
:1003A0008DA73BC020E03FEF4FE757E469A57AA552
:1003B0008BA59CA5C9D218163CF520E030E040E2A0
:1003C00051E469857A858B859C85C2D2DC01CB019D
:1003D000BC01CD0140D2DC01CB019EA78DA70FC08F
:1003E00080E991E098AB8FA78FA598A90197F1F7C5
:1003F00098AB8FA78DA59EA501979EA78DA78DA5CC
:100400009EA5892B69F713C069A57AA58BA59CA524
:1004100022D2DC01CB019EA78DA78DA59EA59AAB0C
:1004200089AB89A99AA90197F1F79AAB89AB60E0EA
:1004300070E08DE090E0ABD180E090E0A8ECB2E419
:100440008D879E87AF87B88B20E030E04AE755E480
:100450006D857E858F8598897BD2DC01CB018F8F5E
:1004600098A3A9A3BAA320E030E040E85FE36F8D32
:1004700078A189A19AA1EBD188232CF481E090E0A6
:100480009CA38BA33BC020E03FEF4FE757E46F8D69
:1004900078A189A19AA158D218163CF520E030E045
:1004A00040E251E46D857E858F85988951D2DC01CB
:1004B000CB01BC01CD01CFD1DC01CB019CA38BA32F
:1004C0000FC080E991E09EA38DA38DA19EA101970D
:1004D000F1F79EA38DA38BA19CA101979CA38BA355
:1004E0008BA19CA1892B69F713C06F8D78A189A17D
:1004F0009AA1B1D1DC01CB019CA38BA38BA19CA1C0
:1005000098A78FA38FA198A50197F1F798A78FA31C
:1005100064E170E086E090E03AD180E090E0A8EC01
:10052000B2E4898B9A8BAB8BBC8B20E030E04AE73E
:1005300055E469897A898B899C890AD2DC01CB01CF
:100540008D8B9E8BAF8BB88F20E030E040E85FE36F
:100550006D897E898F89988D7AD188232CF481E0EA
:1005600090E09A8F898F3BC020E03FEF4FE757E440
:100570006D897E898F89988DE7D118163CF520E02A
:1005800030E040E251E469897A898B899C89E0D125
:10059000DC01CB01BC01CD015ED1DC01CB019A8F26
:1005A000898F0FC080E991E09C8F8B8F8B8D9C8D04
:1005B0000197F1F79C8F8B8F898D9A8D01979A8F78
:1005C000898F898D9A8D892B69F713C06D897E89F2
:1005D0008F89988D40D1DC01CB019A8F898F898DCD
:1005E0009A8D9E8F8D8F8D8D9E8D0197F1F79E8FA9
:1005F0008D8FFFCFCF93DF931F92CDB7DEB7898367
:1006000000008BE990E0FC018081882F90E08072EF
:100610009927892BB1F38CE990E02981FC01208393
:1006200000000F90DF91CF9108951F920F920090DC
:100630005F000F92112400905B000F922F933F9365
:100640004F935F936F937F938F939F93AF93BF93DA
:10065000EF93FF93CF93DF93CDB7DEB72F97DEBF36
:10066000CDBF8CE290E0FC01808189838981082ED6
:10067000000C990B60E070E08AD080E090E0AAE77F
:10068000B4E48A839B83AC83BD8320E030E04AE7F7
:1006900055E46A817B818C819D815AD1DC01CB013B
:1006A0008E839F83A887B98720E030E040E85FE32E
:1006B0006E817F8188859985CAD088232CF481E05A
:1006C00090E09B878A873BC020E03FEF4FE757E4ED
:1006D0006E817F818885998537D118163CF520E099
:1006E00030E040E251E46A817B818C819D8130D190
:1006F000DC01CB01BC01CD01AED0DC01CB019B877D
:100700008A870FC080E991E09D878C878C859D85C5
:100710000197F1F79D878C878A859B8501979B8739
:100720008A878A859B85892B69F713C06E817F81B3
:100730008885998590D0DC01CB019B878A878A8543
:100740009B859F878E878E859F850197F1F79F8771
:100750008E8700002F960FB6F894DEBF0FBECDBF78
:10076000DF91CF91FF91EF91BF91AF919F918F91C9
:100770007F916F915F914F913F912F910F900092D8
:100780005B000F9000925F000F901F901895CF9321
:10079000DF93CDB7DEB763970FB6F894DEBF0FBE19
:1007A000CDBF898B7B8B6A8B8A899B899C838B834A
:1007B0008EE78F838FEF888786E0898789898A878C
:1007C0001B868B819C81892F99278C878B818D87B4
:1007D0008989082E000C990B9C012B5F3E4F8C855C
:1007E000882F90E0280F391F8D85882F90E0820F89
:1007F000931F9195819591099E838D838D819E8113
:10080000892F99278E878D818F878FEE888B1A820B
:1008100019820FC09E01295F3F4F89819A81820F03
:10082000931FFC018081E6DE89819A8101969A837B
:10083000898389819A810A976CF3000063960FB6C9
:10084000F894DEBF0FBECDBFDF91CF9108952FD0BA
:1008500008F481E0089557D088F09F5790F0B92FA1
:100860009927B751A0F0D1F0660F771F881F991F05
:100870001AF0BA95C9F712C0B13081F05ED0B1E07C
:1008800008955BC0672F782F8827B85F39F0B93F8C
:10089000CCF3869577956795B395D9F73EF4909507
:1008A0008095709561957F4F8F4F9F4F0895990F59
:1008B0000008550FAA0BE0E8FEEF16161706E8072A
:1008C000F907C0F012161306E407F50798F0621B4B
:1008D000730B840B950B39F40A2661F0232B242B20
:1008E000252B21F408950A2609F4A140A6958FEF3F
:1008F000811D811D089557FD9058440F551F59F0D3
:100900005F3F71F04795880F97FB991F61F09F3FFC
:1009100079F087950895121613061406551FF2CF25
:100920004695F1DF08C0161617061806991FF1CF75
:1009300086957105610508940895E894BB2766279C
:100940007727CB0197F90895B2DF08F48FEF089568
:100950000BD078C069D028F06ED018F0952309F03C
:100960005AC05FC01124EACFC6DFA0F3959FD1F330
:10097000950F50E0551F629FF001729FBB27F00D4D
:10098000B11D639FAA27F00DB11DAA1F649F6627A2
:10099000B00DA11D661F829F2227B00DA11D621FF1
:1009A000739FB00DA11D621F839FA00D611D221FAB
:1009B000749F3327A00D611D231F849F600D211D8F
:1009C000822F762F6A2F11249F5750408AF0E1F032
:1009D00088234AF0EE0FFF1FBB1F661F771F881F7B
:1009E00091505040A9F79E3F510570F014C0A6CF1A
:1009F0005F3FECF3983EDCF3869577956795B79566
:100A0000F795E7959F5FC1F7FE2B880F911D96958F
:100A1000879597F9089597F99F6780E870E060E0FF
:100A200008959FEF80EC089500240A941616170687
:100A300018060906089500240A94121613061406CF
:100A400005060895092E0394000C11F4882352F032
:100A5000BB0F40F4BF2B11F460FF04C06F5F7F4FEA
:0A0A60008F4F9F4F0895F894FFCFC9
:00000001FF
