:1000000045C000002BC30000A5C300005CC0000079
:100010005AC0000058C0000056C0000054C0000084
:1000200052C0000050C000004EC000004CC0000094
:100030004AC0000048C00000B9C2000044C000002F
:1000400042C0000040C000003EC000003CC00000B4
:100050003AC0000038C0000036C0000034C00000C4
:1000600032C0000030C000002EC000002CC00000D4
:100070002AC0000028C0000026C0000024C00000E4
:1000800022C0000020C000001EC0000011241FBEBE
:10009000CFEFD0E1DEBFCDBF11E0A0E0B1E0E4E8FA
:1000A000FCE000E00BBF02C007900D92A431B10745
:1000B000D9F721E0A4E1B1E001C01D92A034B2075C
:1000C000E1F702D0DDC59CCF8F929F92AF92BF9295
:1000D000CF92DF92EF92FF920F931F93CF93DF9314
:1000E000CDB7DEB768970FB6F894DEBF0FBECDBFB1
:1000F0008EE490E021E0FC01208387E590E027E595
:1001000030E0F90120812460FC0120838CE490E040
:1001100024ED3EEFFC01318320838BE890E022E860
:10012000FC0120838AE890E02AE1FC0120838CE82E
:1001300090E0FC01108280E890E020E43CE9FC01C2
:100140003183208382E290E022E230E0F9012081D5
:100150002860FC0120838AE690E025E5FC012083ED
:1001600089E590E02FE0FC01208387E390E020EF19
:10017000FC01208378941A8219821B821C821D82C2
:100180001E821F82188619861A8689819A81880F95
:10019000991F880F991F845D9E4FFC01808191817A
:1001A000A281B38186349105A105B105F0F489815E
:1001B0009A81880F991F880F991F845D9E4FFC01BB
:1001C00080819181A281B38126E430E040E050E05B
:1001D00079018A01E81AF90A0A0B1B0BD801C70139
:1001E0008B839C83AD83BE8315C089819A81880FE0
:1001F000991F880F991F845D9E4FFC01808191811A
:10020000A281B38186549109A109B1098B839C8392
:10021000AD83BE838091300190913101A091320174
:10022000B091330186349105A105B105C8F48091E0
:10023000300190913101A0913201B091330126E457
:1002400030E040E050E079018A01E81AF90A0A0B2F
:100250001B0BD801C7018F839887A987BA8710C065
:100260008091300190913101A0913201B091330120
:1002700086549109A109B1098F839887A987BA8704
:100280002B813C814D815E818F819885A985BA85BE
:10029000281739074A075B0754F481E090E09A83F6
:1002A000898388E390E020E4FC01208305C088E393
:1002B00090E020E8FC01208389819A81880F991FB2
:1002C000880F991F845D9E4FFC0180819181A281DE
:1002D000B38181359105A105B10508F476C0898106
:1002E0009A81880F991F880F991F80509F4FFC019A
:1002F00080819181A281B3810A96A11DB11D2981BE
:100300003A81220F331F220F331F20503F4FF90134
:1003100080839183A283B38389819A81880F991FF7
:10032000880F991F80509F4FFC0180819181A2818D
:10033000B381853B9105A105B10594F089819A812E
:10034000880F991F880F991F9C0120503F4F84EB05
:1003500090E0A0E0B0E0F90180839183A283B383B1
:100360000F2EF6E88F2E912CF02D89819A81880F1F
:10037000991F880F991F80509F4FFC0180819181A8
:10038000A281B3811F921F9223E12F9328E82F931C
:100390000F2EF8EEAF2EF3E0BF2EC12CD12CF02D96
:1003A00014EBE12EF12C00E010E020E030E0A90198
:1003B000BC01CD014BD20F900F900F900F90DC013C
:1003C000CB01F4019183808384C089819A81880F55
:1003D000991F880F991F845D9E4FFC018081918138
:1003E000A281B381CC97A105B10508F06EC08981C7
:1003F0009A81880F991F880F991F80509F4FFC0189
:1004000080819181A281B3810A97A109B1092981D3
:100410003A81220F331F220F331F20503F4FF90123
:1004200080839183A283B38389819A81880F991FE6
:10043000880F991F80509F4FFC0180819181A2817C
:10044000B381BB236CF489819A81880F991F880F2F
:10045000991F80509F4FFC011082118212821382DB
:100460000F2EF6E88F2E912CF02D89819A81880F1E
:10047000991F880F991F80509F4FFC0180819181A7
:10048000A281B3811F921F9223E12F9328E82F931B
:100490000F2EF8EEAF2EF3E0BF2EC12CD12CF02D95
:1004A00014EBE12EF12C00E010E020E030E0A90197
:1004B000BC01CD01CBD10F900F900F900F90DC01BC
:1004C000CB01F4019183808304C088E390E0FC01B8
:1004D000108280E090E0A8ECB2E48B879C87AD8727
:1004E000BE8720E030E04AE755E46B857C858D854A
:1004F0009E85D5D2DC01CB018F87988BA98BBA8BD7
:1005000020E030E040E85FE36F85788989899A8947
:1005100045D288232CF481E090E09C8B8B8B3BC0F0
:1005200020E03FEF4FE757E46F85788989899A8902
:10053000B2D218163CF520E030E040E251E46B8581
:100540007C858D859E85ABD2DC01CB01BC01CD01C4
:1005500029D2DC01CB019C8B8B8B0FC080E991E011
:100560009E8B8D8B8D899E890197F1F79E8B8D8B4C
:100570008B899C8901979C8B8B8B8B899C89892B80
:1005800069F713C06F85788989899A890BD2DC0154
:10059000CB019C8B8B8B8B899C89988F8F8B8F89C0
:1005A000988D0197F1F7988F8F8BE5CD1F920F9261
:1005B00000905F000F92112400905B000F922F9328
:1005C0003F938F939F93AF93BF93EF93FF93CF93FB
:1005D000DF93CDB7DEB78CE490E024ED3EEFFC0175
:1005E000318320838091140190911501A09116010F
:1005F000B09117010196A11DB11D80931401909334
:100600001501A0931601B0931701809114019091E8
:100610001501A0911601B091170181369A4EA105DE
:10062000B10540F0109214011092150110921601BC
:10063000109217010000DF91CF91FF91EF91BF91D0
:10064000AF919F918F913F912F910F9000925B00FE
:100650000F9000925F000F901F9018951F920F92BD
:1006600000905F000F92112400905B000F92EF92B8
:10067000FF920F931F932F933F934F935F938F930B
:100680009F93AF93BF93EF93FF93CF93DF93CDB738
:10069000DEB780E390E0FC018081882F90E08170DC
:1006A0009927892B89F08091140190911501A091CF
:1006B0001601B09117018093180190931901A0932E
:1006C0001A01B0931B012CC080911801909119015F
:1006D000A0911A01B0911B01892B8A2B8B2B01F160
:1006E000209114013091150140911601509117018C
:1006F0008091180190911901A0911A01B0911B01EC
:1007000079018A01E81AF90A0A0B1B0BD801C70103
:1007100080932C0190932D01A0932E01B0932F0173
:100720000000DF91CF91FF91EF91BF91AF919F9129
:100730008F915F914F913F912F911F910F91FF905A
:10074000EF900F9000925B000F9000925F000F906F
:100750001F9018951F920F9200905F000F92112426
:1007600000905B000F92EF92FF920F931F932F93D5
:100770003F934F935F938F939F93AF93BF93EF9369
:10078000FF93CF93DF93CDB7DEB780E390E0FC011A
:100790008081882F90E082709927892B89F0809141
:1007A000140190911501A0911601B0911701809349
:1007B0001C0190931D01A0931E01B0931F012CC03A
:1007C00080911C0190911D01A0911E01B0911F010B
:1007D000892B8A2B8B2B01F120911401309115016B
:1007E000409116015091170180911C0190911D01BB
:1007F000A0911E01B0911F0179018A01E81AF90A3E
:100800000A0B1B0BD801C701809330019093310173
:10081000A0933201B09333010000DF91CF91FF919B
:10082000EF91BF91AF919F918F915F914F913F91C8
:100830002F911F910F91FF90EF900F9000925B000E
:100840000F9000925F000F901F901895AF92BF928B
:10085000CF92DF92EF92FF920F931F93CF93DF938C
:10086000CDB7DEB764970FB6F894DEBF0FBECDBF2D
:100870006D837E838F83988729873A874B875C8730
:10088000ED86FE860F87188BA98ABA8ACB8ADC8A06
:100890002D813E814F8158858D859E85AF85B88994
:1008A00082179307A407B5074CF48D859E85AF8505
:1008B000B8898D839E83AF83B88715C02D813E8113
:1008C0004F81588589859A85AB85BC85281739075E
:1008D0004A075B0744F489859A85AB85BC858D837F
:1008E0009E83AF83B8872D813E814F81588589854E
:1008F0009A85AB85BC8579018A01E81AF90A0A0B49
:100900001B0B29A13AA14BA15CA189899A89AB89CA
:10091000BC8959016A01A81AB90ACA0ADB0AD601B8
:10092000C501A8019701BC01CD0144D17B018C0117
:100930002D853E854F85588989859A85AB85BC85EF
:10094000281B390B4A0B5B0BC801B70142D1DA01F6
:10095000C9019C01AD0189899A89AB89BC89820F43
:10096000931FA41FB51F89839A83AB83BC8389819E
:100970009A81AB81BC81BC01CD0164960FB6F8941D
:10098000DEBF0FBECDBFDF91CF911F910F91FF90C2
:10099000EF90DF90CF90BF90AF9008952FD008F4E4
:1009A00081E0089557D088F09F5790F0B92F99278C
:1009B000B751A0F0D1F0660F771F881F991F1AF06A
:1009C000BA95C9F712C0B13081F05ED0B1E0089598
:1009D0005BC0672F782F8827B85F39F0B93FCCF319
:1009E000869577956795B395D9F73EF49095809560
:1009F000709561957F4F8F4F9F4F0895990F000815
:100A0000550FAA0BE0E8FEEF16161706E807F907E0
:100A1000C0F012161306E407F50798F0621B730B7B
:100A2000840B950B39F40A2661F0232B242B252BFC
:100A300021F408950A2609F4A140A6958FEF811D9F
:100A4000811D089557FD9058440F551F59F05F3F81
:100A500071F04795880F97FB991F61F09F3F79F0E0
:100A600087950895121613061406551FF2CF469562
:100A7000F1DF08C0161617061806991FF1CF8695E4
:100A80007105610508940895E894BB2766277727C8
:100A9000CB0197F90895B2DF08F48FEF08950BD0DA
:100AA00078C069D028F06ED018F0952309F05AC0AC
:100AB0005FC01124EACFC6DFA0F3959FD1F3950F55
:100AC00050E0551F629FF001729FBB27F00DB11DD2
:100AD000639FAA27F00DB11DAA1F649F6627B00D62
:100AE000A11D661F829F2227B00DA11D621F739F4B
:100AF000B00DA11D621F839FA00D611D221F749F59
:100B00003327A00D611D231F849F600D211D822F9F
:100B1000762F6A2F11249F5750408AF0E1F08823E6
:100B20004AF0EE0FFF1FBB1F661F771F881F9150F3
:100B30005040A9F79E3F510570F014C0A6CF5F3F0B
:100B4000ECF3983EDCF3869577956795B795F79526
:100B5000E7959F5FC1F7FE2B880F911D96958795AE
:100B600097F9089597F99F6780E870E060E008952D
:100B70009FEF80EC089500240A94161617061806B5
:100B80000906089500240A94121613061406050691
:100B90000895092E0394000C11F4882352F0BB0F22
:100BA00040F4BF2B11F460FF04C06F5F7F4F8F4F85
:100BB0009F4F0895DB018F939F9327D0BF91AF91F3
:100BC000A29F800D911DA39F900DB29F900D1124A7
:100BD0000895052E97FB16F400940FD057FD05D00D
:100BE0001ED007FC02D046F408C0509540953095C1
:100BF00021953F4F4F4F5F4F089590958095709589
:100C000061957F4F8F4F9F4F08952BD0A59F900DDB
:100C1000B49F900DA49F800D911D11240895A1E211
:100C20001A2EAA1BBB1BFD010DC0AA1FBB1FEE1F66
:100C3000FF1FA217B307E407F50720F0A21BB30BB1
:100C4000E40BF50B661F771F881F991F1A9469F72D
:100C500060957095809590959B01AC01BD01CF0189
:100C60000895A29FB001B39FC001A39F700D811D85
:100C70001124911DB29F700D811D1124911D0895A5
:040C8000F894FFCF16
:100C84005A0000005A0000005A0000005A000000F8
:040C94005A00000002
:00000001FF
