:1000000045C000004BC0000049C0000047C00000D0
:1000100045C0000043C0000041C000003FC00000D8
:100020003DC000003BC0000039C0000037C00000E8
:1000300035C0000033C0000031C000002FC00000F8
:100040002DC000002BC0000029C0000027C0000008
:1000500025C0000023C0000021C000001FC0000018
:100060001DC000001BC0000019C0000017C0000028
:1000700015C0000013C0000011C000000FC0000038
:100080000DC000000BC0000009C0000011241FBEFD
:10009000CFEFD0E1DEBFCDBF02D0D3C3B1CF0F933E
:1000A000CF93DF93CDB7DEB7CA54D1090FB6F8941A
:1000B000DEBF0FBECDBF8BE290E0FC0110828AE272
:1000C00090E028E0FC01208385E990E026E0FC0137
:1000D000208380E990E0FC01108289E290E027E62D
:1000E000FC0120838BE990E0FC0110828AE990E01A
:1000F00028E0FC0120838DE990E026E0FC012083CC
:1001000088E990E0FC01108289E990E027E6FC0193
:1001100020838EE78FAB8FEF88AF86E089AF89E0D1
:100120008AAF1BAE1CAE82E08DAF4DAD2CAD3AADAB
:1001300099AD88AD042F432F692F3AD298878F83CA
:1001400081EF9EEF9A87898789859A85892F990FF4
:10015000990B8EAF89858FAF2FEECE01805C9F4FBC
:10016000FC012083CE018F5B9F4F2EE7FC01208393
:10017000CE018F5B9F4F2FEFFC012183CE018F5B60
:100180009F4F26E0FC012283CE018F5B9F4F21E031
:10019000FC012383CE018F5B9F4FFC011482CE01B3
:1001A0008F5B9F4FFC011582CE018F5B9F4FFC013F
:1001B0001682CE018F5B9F4FFC015681CE018F5B73
:1001C0009F4FFC012581CE018F5B9F4FFC01438136
:1001D000CE018F5B9F4FFC013281CE018F5B9F4F21
:1001E000FC018181052F632FE3D19C878B878AEFE8
:1001F0009EEF9A87898789859A85892F990F990B10
:10020000282FCE018F5B9F4FFC0127832985CE01CC
:100210008F5B9F4FFC012087CE018F5B9F4F2FEE9E
:10022000FC01218780E090E0A8ECB2E48D8B9E8BEE
:10023000AF8BB88F20E030E04AE755E46D897E89C6
:100240008F89988D73D2DC01CB01898F9A8FAB8F08
:10025000BC8F20E030E040E85FE3698D7A8D8B8DC4
:100260009C8DE3D188232CF481E090E09E8F8D8FCC
:100270003BC020E03FEF4FE757E4698D7A8D8B8DCF
:100280009C8D50D218163CF520E030E040E251E45D
:100290006D897E898F89988D49D2DC01CB01BC01A3
:1002A000CD01C7D1DC01CB019E8F8D8F0FC080E9BE
:1002B00091E098A38F8F8F8D98A10197F1F798A364
:1002C0008F8F8D8D9E8D01979E8F8D8F8D8D9E8DA5
:1002D000892B69F713C0698D7A8D8B8D9C8DA9D17F
:1002E000DC01CB019E8F8D8F8D8D9E8D9AA389A36E
:1002F00089A19AA10197F1F79AA389A31A82198279
:1003000012C09E01295C3F4F89819A81820F931F01
:10031000FC018081082E000C990B14D189819A81EF
:1003200001969A83898389819A810A9754F380E0A0
:1003300090E0AAE7B4E48D879E87AF87B88B20E072
:1003400030E04AE755E46D857E858F859889EED14A
:10035000DC01CB018BA39CA3ADA3BEA320E030E0C6
:1003600040E85FE36BA17CA18DA19EA15ED18823B3
:100370002CF481E090E098A78FA33BC020E03FEFF2
:100380004FE757E46BA17CA18DA19EA1CBD118169C
:100390003CF520E030E040E251E46D857E858F85BC
:1003A0009889C4D1DC01CB01BC01CD0142D1DC0173
:1003B000CB0198A78FA30FC080E991E09AA789A7E6
:1003C00089A59AA50197F1F79AA789A78FA198A562
:1003D000019798A78FA38FA198A5892B69F713C0C0
:1003E0006BA17CA18DA19EA124D1DC01CB0198A79A
:1003F0008FA38FA198A59CA78BA78BA59CA50197E0
:10040000F1F79CA78BA71C821B8212C09E012F5B59
:100410003F4F8B819C81820F931FFC018081082EAE
:10042000000C990B8FD08B819C8101969C838B83D0
:100430008B819C810A9754F31E821D8212C09E01FB
:100440002F5B3F4F8D819E81820F931FFC01808126
:10045000082E000C990B91D08D819E8101969E8370
:100460008D838D819E810A9754F380E090E0AAE706
:10047000B4E4898B9A8BAB8BBC8B20E030E04AE7ED
:1004800055E469897A898B899C8950D1DC01CB013B
:100490008DA79EA7AFA7B8AB20E030E040E85FE3B0
:1004A0006DA57EA58FA598A9C0D088232CF481E0E6
:1004B00090E09AAB89AB3BC020E03FEF4FE757E4B9
:1004C0006DA57EA58FA598A92DD118163CF520E025
:1004D00030E040E251E469897A898B899C8926D190
:1004E000DC01CB01BC01CD01A4D0DC01CB019AAB76
:1004F00089AB0FC080E991E09CAB8BAB8BA99CA929
:100500000197F1F79CAB8BAB89A99AA901979AAB9C
:1005100089AB89A99AA9892B69F713C06DA57EA516
:100520008FA598A986D0DC01CB019AAB89AB89A9AC
:100530009AA99EAB8DAB8DA99EA90197F1F79EABB1
:100540008DAB7ACFCF93DF931F92CDB7DEB7898380
:1005500000008BE990E0FC018081882F90E08072A0
:100560009927892BB1F38CE990E02981FC01208344
:1005700000000F90DF91CF910895CF93DF931F92EA
:10058000CDB7DEB7898300008BE290E0FC0180816B
:10059000882F90E080729927892BB1F38CE290E04C
:1005A0002981FC01208300000F90DF91CF910895F5
:1005B0000F93CF93DF93CDB7DEB727970FB6F8949D
:1005C000DEBF0FBECDBF8B836C834D832E830F8325
:1005D0008B81282F880F330B8C81082E000C990BF0
:1005E000280F391F8D81082E000C990B280F391FF9
:1005F0008E81082E000C990B280F391F8F81082E31
:10060000000C990B820F931F9195819591099A8304
:10061000898389819A8127960FB6F894DEBF0FBE31
:10062000CDBFDF91CF910F9108952FD008F481E0D5
:10063000089557D088F09F5790F0B92F9927B75158
:10064000A0F0D1F0660F771F881F991F1AF0BA9596
:10065000C9F712C0B13081F05ED0B1E008955BC03F
:10066000672F782F8827B85F39F0B93FCCF386958C
:1006700077956795B395D9F73EF4909580957095E9
:1006800061957F4F8F4F9F4F0895990F0008550F29
:10069000AA0BE0E8FEEF16161706E807F907C0F008
:1006A00012161306E407F50798F0621B730B840B10
:1006B000950B39F40A2661F0232B242B252B21F4EA
:1006C00008950A2609F4A140A6958FEF811D811D8A
:1006D000089557FD9058440F551F59F05F3F71F032
:1006E0004795880F97FB991F61F09F3F79F0879599
:1006F0000895121613061406551FF2CF4695F1DF22
:1007000008C0161617061806991FF1CF86957105B1
:10071000610508940895E894BB2766277727CB01E5
:1007200097F90895B2DF08F48FEF08950BD078C0E1
:1007300069D028F06ED018F0952309F05AC05FC038
:100740001124EACFC6DFA0F3959FD1F3950F50E0B7
:10075000551F629FF001729FBB27F00DB11D639F73
:10076000AA27F00DB11DAA1F649F6627B00DA11D19
:10077000661F829F2227B00DA11D621F739FB00DBF
:10078000A11D621F839FA00D611D221F749F33272F
:10079000A00D611D231F849F600D211D822F762FC8
:1007A0006A2F11249F5750408AF0E1F088234AF0C5
:1007B000EE0FFF1FBB1F661F771F881F9150504011
:1007C000A9F79E3F510570F014C0A6CF5F3FECF330
:1007D000983EDCF3869577956795B795F795E795FD
:1007E0009F5FC1F7FE2B880F911D9695879597F90E
:1007F000089597F99F6780E870E060E008959FEFA3
:1008000080EC089500240A941616170618060906A7
:10081000089500240A941216130614060506089576
:10082000092E0394000C11F4882352F0BB0F40F4FE
:10083000BF2B11F460FF04C06F5F7F4F8F4F9F4F3E
:060840000895F894FFCFBB
:00000001FF
