:1000000045C0000053C0000051C000004FC00000B8
:100010004DC000004BC0000049C0000047C00000B8
:1000200045C0000043C0000041C00000C2C3000042
:100030003DC000003BC0000039C0000037C00000D8
:1000400035C0000033C0000031C000002FC00000E8
:100050002DC000002BC0000029C0000027C00000F8
:1000600025C0000023C0000021C000001FC0000008
:100070001DC000001BC0000019C0000017C0000018
:1000800015C0000013C0000011C0000011241FBEE5
:10009000CFEFD0E1DEBFCDBF21E0A0E0B1E001C0F5
:1000A0001D92A530B207E1F702D070C5A9CF0F931A
:1000B0001F93CF93DF93CDB7DEB7C155D1090FB6EC
:1000C000F894DEBF0FBECDBF8FE490E0FC0110823C
:1000D0008EE490E023E0FC0120838AE790E0FC01BD
:1000E000108287E590E021E2FC0120838CE490E01F
:1000F00024E630E0FC013183208381E390E021E3BA
:1001000030E0F90120812860FC0120838BE290E03F
:10011000FC0110828AE290E028E9FC01208385E955
:1001200090E026E0FC01208380E990E0FC01108251
:1001300089E290E027E6FC01208378948091000119
:10014000882309F011C28EE490E023E4FC012083AF
:1001500082E390E0FC01108280E090E0A0E8BFE341
:100160008E839F83A887B9872BEA3AEA4AEA50E44C
:100170006E817F818885998597D4DC01CB018CA71E
:100180009DA7AEA7BFA720E030E040E850E46E8115
:100190007F818885998588D4DC01CB0188AB99ABB8
:1001A000AAABBBAB20E030E040E85FE36CA57DA5E7
:1001B0008EA59FA568D388231CF481E08CABD1C0A9
:1001C00020E03FEF4FE757E468A979A98AA99BA9E6
:1001D00067D418160CF08AC020E030E04AE754E4F7
:1001E0006E817F818885998552D3DC01CB018DABEF
:1001F0009EABAFABB8AF20E030E04AE755E46DA965
:100200007EA98FA998AD50D4DC01CB0189AF9AAFFC
:10021000ABAFBCAF20E030E040E85FE369AD7AAD62
:100220008BAD9CAD30D388232CF481E090E09EAF61
:100230008DAF45C020E03FEF4FE757E469AD7AADA1
:100240008BAD9CAD2DD418168CF520E030E040E24B
:1002500051E46DA97EA98FA998AD26D4DC01CB010C
:10026000BC01CD017CD3DC01CB019EAF8DAF19C0A9
:1002700020E931E0CE01CF96FC0131832083CE010D
:10028000CF96FC01808191810197F1F79E01215C5D
:100290003F4FF901918380838DAD9EAD01979EAF55
:1002A0008DAF8DAD9EAD892B19F75BC069AD7AAD71
:1002B0008BAD9CAD54D3DC01CB019EAF8DAFCE0195
:1002C0008F5B9F4F2DAD3EADFC0131832083CE016E
:1002D0008F5B9F4FFC01808191810197F1F79E0117
:1002E0002F5B3F4FF901918380833BC020E030E0DA
:1002F0004FE753E46CA57DA58EA59FA5D1D3181615
:1003000044F58E010D5B1F4F68A979A98AA99BA9A5
:1003100026D3DC01CB01F80191838083CE018B5B76
:100320009F4F9E012D5B3F4FF90120813181FC01E0
:1003300031832083CE018B5B9F4FFC0180819181B3
:100340000197F1F79E012B5B3F4FF9019183808369
:100350001BC06CA57DA58EA59FA501D3DC01CB019B
:100360008CABCE01895B9F4F2CA9FC012083CE0171
:10037000895B9F4FFC018081282F2A95F1F7CE01E0
:10038000895B9F4FFC01208382E390E028E0FC0121
:10039000208380E090E0A0E3B1E48C879D87AE8766
:1003A000BF872BEA3AEA4AEA50E46C857D858E8560
:1003B0009F857AD3DC01CB01888B998BAA8BBB8B71
:1003C00020E030E040E850E46C857D858E859F8597
:1003D0006BD3DC01CB018C8B9D8BAE8BBF8B20E074
:1003E00030E040E85FE3688979898A899B894BD24C
:1003F00088231CF481E0888FA7C020E03FEF4FE7FF
:1004000057E46C897D898E899F894AD318160CF030
:1004100074C020E030E04AE754E46C857D858E8529
:100420009F8535D2DC01CB01898F9A8FAB8FBC8F32
:1004300020E030E04AE755E4698D7A8D8B8D9C8D04
:1004400033D3DC01CB018D8F9E8FAF8FB8A320E01B
:1004500030E040E85FE36D8D7E8D8F8D98A113D2E3
:1004600088232CF481E090E09AA389A33BC020E08C
:100470003FEF4FE757E46D8D7E8D8F8D98A110D3A0
:1004800018163CF520E030E040E251E4698D7A8DA9
:100490008B8D9C8D09D3DC01CB01BC01CD015FD2DA
:1004A000DC01CB019AA389A30FC080E991E09CA352
:1004B0008BA38BA19CA10197F1F79CA38BA389A18E
:1004C0009AA101979AA389A389A19AA1892B69F777
:1004D0003BC06D8D7E8D8F8D98A141D2DC01CB010B
:1004E0009AA389A389A19AA19EA38DA38DA19EA160
:1004F0000197F1F79EA38DA327C020E030E04FE7DE
:1005000053E4688979898A899B89CAD21816A4F428
:100510006C897D898E899F8922D2DC01CB0198A7C5
:100520008FA38FA198A59AA789A789A59AA50197B6
:10053000F1F79AA789A70EC0688979898A899B896A
:100540000ED2DC01CB01888F888D8BA78BA58A9575
:10055000F1F78BA78CE490E0FC011182108282E31A
:1005600090E0FC011082EACD80910001813091F48D
:1005700086E490E0FC0180819181893E9D4F08F4E2
:10058000DDCD10920201109201011092040110922F
:100590000301D4CD80910001823009F0CFCD2091AC
:1005A0000301309104018091010190910201A901A0
:1005B000481B590BCA019B878A878CE490E0FC0199
:1005C000118210828EE490E023E4FC0120831092DB
:1005D0000001109204011092030110920201109286
:1005E00001018A859B859C01A9E8B8E8C0D296954F
:1005F000879596958795969587959B878A87198283
:100600008A859B854F9710F0198210C08A859B853B
:10061000459718F081E0898309C08A859B850B97EF
:1006200018F082E0898302C083E089838FEF90E035
:100630000FD18A859B8599270BD18A859B85892F28
:10064000992706D18981882F90E002D180E090E03F
:10065000A8ECB2E48A839B83AC83BD838E01085BE4
:100660001F4F20E030E04AE755E46A817B818C81AE
:100670009D811AD2DC01CB01F80180839183A28392
:10068000B383CE01885B9F4F20E030E040E85FE31A
:10069000FC016081718182819381F5D088234CF4C3
:1006A000CE01845B9F4F21E030E0FC013183208349
:1006B00065C0CE01885B9F4F20E03FEF4FE757E4D6
:1006C000FC016081718182819381EAD118160CF05E
:1006D00044C020E030E040E251E46A817B818C81BB
:1006E0009D81E2D1DC01CB018E01045B1F4FBC0177
:1006F000CD0135D1DC01CB01F8019183808324C089
:10070000CE01825B9F4F20E931E0FC0131832083E1
:10071000CE01825B9F4FFC01808191810197F1F7AF
:100720009E01225B3F4FF90191838083CE01845B60
:100730009F4F9E01245B3F4FF90120813181215061
:100740003109FC0131832083CE01845B9F4FFC0182
:1007500080819181892BA1F62BC08E01045B1F4FF4
:10076000CE01885B9F4FFC01608171818281938102
:10077000F6D0DC01CB01F80191838083CE01805B50
:100780009F4F9E01245B3F4FF90120813181FC0185
:1007900031832083CE01805B9F4FFC01808191815A
:1007A0000197F1F79E01205B3F4FF9019183808310
:1007B000C5CC1F920F9200905F000F921124009001
:1007C0005B000F922F938F939F93EF93FF93CF93A1
:1007D000DF93CDB7DEB78EE490E0FC018081882FF7
:1007E00090E080749927892B91F086E490E0FC01D9
:1007F0008081918190930201809301018EE490E0C9
:1008000023E0FC01208381E08093000110C08091EF
:100810000001813061F486E490E0FC0180819181E7
:10082000909304018093030182E080930001000013
:10083000DF91CF91FF91EF919F918F912F910F9029
:1008400000925B000F9000925F000F901F90189530
:10085000CF93DF931F92CDB7DEB7898300008BE281
:1008600090E0FC018081882F90E080729927892B8D
:10087000B1F38CE290E02981FC01208300000F900D
:10088000DF91CF91089597D008F481E008950CD0BE
:10089000CDC0C5D040F0BCD030F021F45F3F19F09E
:1008A000AEC05111F7C0B1C0D2D098F39923C9F3AB
:1008B0005523B1F3951B550BBB27AA276217730766
:1008C000840738F09F5F5F4F220F331F441FAA1F1A
:1008D000A9F333D00E2E3AF0E0E830D091505040DA
:1008E000E695001CCAF729D0FE2F27D0660F771F88
:1008F000881FBB1F261737074807AB07B0E809F06A
:10090000BB0B802DBF01FF2793585F4F2AF09E3FFE
:10091000510568F074C0BEC05F3FECF3983EDCF355
:10092000869577956795B795F7959F5FC9F7880F77
:10093000911D9695879597F90895E1E0660F771FC9
:10094000881FBB1F621773078407BA0720F0621B5A
:10095000730B840BBA0BEE1F88F7E09508957FD0D8
:1009600088F09F5790F0B92F9927B751A0F0D1F098
:10097000660F771F881F991F1AF0BA95C9F712C022
:10098000B13081F086D0B1E0089583C0672F782F11
:100990008827B85F39F0B93FCCF38695779567958E
:1009A000B395D9F73EF490958095709561957F4FFA
:1009B0008F4F9F4F0895990F0008550FAA0BE0E83D
:1009C000FEEF16161706E807F907C0F01216130611
:1009D000E407F50798F0621B730B840B950B39F451
:1009E0000A2661F0232B242B252B21F408950A26B7
:1009F00009F4A140A6958FEF811D811D089597F9F7
:100A00009F6780E870E060E008959FEF80EC0895B4
:100A100000240A94161617061806090608950024DD
:100A20000A9412161306140605060895092E039457
:100A3000000C11F4882352F0BB0F40F4BF2B11F4CB
:100A400060FF04C06F5F7F4F8F4F9F4F089557FD2A
:100A50009058440F551F59F05F3F71F04795880F2C
:100A600097FB991F61F09F3F79F0879508951216C3
:100A700013061406551FF2CF4695F1DF08C016166F
:100A800017061806991FF1CF869571056105089420
:100A90000895E894BB2766277727CB0197F9089537
:100AA0008ADF08F48FEF08950BD0C0CFB1DF28F0B4
:100AB000B6DF18F0952309F0A2CFA7CF1124EACF13
:100AC000C6DFA0F3959FD1F3950F50E0551F629FAD
:100AD000F001729FBB27F00DB11D639FAA27F00D97
:100AE000B11DAA1F649F6627B00DA11D661F829FBE
:100AF0002227B00DA11D621F739FB00DA11D621FA3
:100B0000839FA00D611D221F749F3327A00D611DBF
:100B1000231F849F600D211D822F762F6A2F1124A1
:100B20009F5750408AF0E1F088234AF0EE0FFF1FF4
:100B3000BB1F661F771F881F91505040A9F79E3F2B
:100B4000510570F05CCFA6CF5F3FECF3983EDCF32D
:100B5000869577956795B795F795E7959F5FC1F768
:100B6000FE2B880F911D9695879597F90895A29F62
:100B7000B001B39FC001A39F700D811D1124911D71
:100B8000B29F700D811D1124911D0895F894FFCF1F
:00000001FF
