S0130000303830335F7465737430312E73726563C6
S113000045C0000028C200005AC200008CC2000093
S1130010BEC2000058C0000056C0000054C000001A
S113002052C0000050C00000E6C200004CC00000F6
S11300304AC0000048C0000046C0000044C00000A0
S113004042C0000040C000003EC000003CC00000B0
S11300503AC0000038C0000036C0000034C00000C0
S113006032C0000030C000002EC000002CC00000D0
S11300702AC0000028C0000026C0000024C00000E0
S113008022C0000020C000001EC0000011241FBEBA
S1130090CFEFD0E1DEBFCDBF11E0A0E0B1E0E4E1FD
S11300A0FEE000E00BBF02C007900D92A031B10743
S11300B0D9F721E0A0E1B1E001C01D92A633B20757
S11300C0E1F702D0A5C69CCF8F929F92AF92BF92C8
S11300D0CF92DF92EF92FF920F931F93CF93DF9310
S11300E0CDB7DEB78FE490E02AEAFC0120838EE4EA
S11300F090E02AE1FC0120838AE790E0FC01108271
S113010086E490E020E43CE9FC01318320838BE821
S113011090E022E8FC0120838AE890E02AE1FC01D7
S113012020838CE890E0FC01108280E890E020E4D9
S11301303CE9FC013183208382E290E02FE0FC0162
S1130140208384E390E020EFFC0120838AE690E0A2
S113015025E5FC01208389E590E02FE0FC01208364
S113016083E590E02FE6FC01208381E590E0FC012B
S1130170108287E390E027E330E0F90120812061D9
S1130180FC01208387E390E020EFFC01208385E4D9
S113019090E021E0FC01208387E590E027E530E052
S11301A0F90120812064FC01208384E490E0FC01B7
S11301B01082789480912E0190912F01A0913001AA
S11301C0B091310186349105A105B105A8F480915F
S11301D0320190913301A0913401B09135018634FC
S11301E09105A105B10540F410921101109210017E
S11301F080E090E0EBD272C080912E0190912F01AB
S1130200A0913001B091310186349105A105B10569
S1130210B8F48091320190913301A0913401B091EE
S113022035018B359105A105B10550F081E090E0D1
S1130230909311018093100182E090E0C7D24EC0E8
S113024080912E0190912F01A0913001B091310144
S11302508B359105A105B105B8F0809132019091DB
S11302603301A0913401B091350186349105A10583
S1130270B10550F482E090E0909311018093100155
S113028080E090E0F4D12AC080912E0190912F015A
S1130290A0913001B09131018B359105A105B105D3
S11302A0B8F08091320190913301A0913401B09162
S11302B035018B359105A105B10550F083E090E03F
S11302C0909311018093100181E090E0D0D106C099
S11302D084E090E090931101809310010F2EFAE4D2
S11302E08F2E912CF02D8091000190910101A0910D
S11302F00201B09103011F921F9223E12F9328E87A
S11303002F930F2EF8EEAF2EF3E0BF2EC12CD12C7D
S1130310F02D14EBE12EF12C00E010E020E030E0B1
S1130320A901BC01CD0166D40F900F900F900F90DE
S1130330DC01CB01F401918380830F2EF8E48F2E2E
S1130340912CF02D8091040190910501A09106015A
S1130350B09107011F921F9223E12F9328E82F9356
S11303600F2EF8EEAF2EF3E0BF2EC12CD12CF02DC2
S113037014EBE12EF12C00E010E020E030E0A901C4
S1130380BC01CD0137D40F900F900F900F90DC017A
S1130390CB01F401918380830F2EF8E78F2E912CEB
S11303A0F02D8091080190910901A0910A01B0916A
S11303B00B011F921F9223E12F9328E82F930F2EF6
S11303C0F8EEAF2EF3E0BF2EC12CD12CF02D14EBA0
S11303D0E12EF12C00E010E020E030E0A901BC01A6
S11303E0CD0108D40F900F900F900F90DC01CB013A
S11303F0F401918380830F2EF6E88F2E912CF02D3B
S113040080910C0190910D01A0910E01B0910F010A
S11304101F921F9223E12F9328E82F930F2EF8EEBB
S1130420AF2EF3E0BF2EC12CD12CF02D14EBE12E16
S1130430F12C00E010E020E030E0A901BC01CD0186
S1130440D9D30F900F900F900F90DC01CB01F401E2
S113045091838083AFCE1F920F9200905F000F9222
S1130460112400905B000F922F933F934F935F935F
S11304706F937F938F939F93AF93BF93EF93FF9368
S1130480CF93DF93CDB7DEB780E090E039D300009F
S1130490DF91CF91FF91EF91BF91AF919F918F9198
S11304A07F916F915F914F913F912F910F900092A7
S11304B05B000F9000925F000F901F9018951F92A1
S11304C00F9200905F000F92112400905B000F9236
S11304D02F933F934F935F936F937F938F939F9348
S11304E0AF93BF93EF93FF93CF93DF93CDB7DEB773
S11304F081E090E005D30000DF91CF91FF91EF916F
S1130500BF91AF919F918F917F916F915F914F9127
S11305103F912F910F9000925B000F9000925F002B
S11305200F901F9018951F920F9200905F000F92EA
S1130530112400905B000F922F933F934F935F938E
S11305406F937F938F939F93AF93BF93EF93FF9397
S1130550CF93DF93CDB7DEB782E090E0D1D2000035
S1130560DF91CF91FF91EF91BF91AF919F918F91C7
S11305707F916F915F914F913F912F910F900092D6
S11305805B000F9000925F000F901F9018951F92D0
S11305900F9200905F000F92112400905B000F9265
S11305A02F933F934F935F936F937F938F939F9377
S11305B0AF93BF93EF93FF93CF93DF93CDB7DEB7A2
S11305C083E090E09DD20000DF91CF91FF91EF9105
S11305D0BF91AF919F918F917F916F915F914F9157
S11305E03F912F910F9000925B000F9000925F005B
S11305F00F901F9018951F920F9200905F000F921A
S1130600112400905B000F928F939F93AF93BF933D
S1130610EF93FF93CF93DF93CDB7DEB780911201B1
S113062090911301A0911401B09115010196A11D9F
S1130630B11D8093120190931301A0931401B09300
S1130640150184E490E0FC0110820000DF91CF9159
S1130650FF91EF91BF91AF919F918F910F90009275
S11306605B000F9000925F000F901F9018958F927F
S11306709F92AF92BF92CF92DF92EF92FF920F932D
S11306801F93CF93DF93CDB7DEB72A970FB6F894B5
S1130690DEBF0FBECDBF9A87898719821A821B825B
S11306A01C828091260190912701A0912801B0918C
S11306B029018B549109A109B10989839A83AB83D8
S11306C0BC8389819A81AB81BC81BB237CF4898101
S11306D09A81AB81BC81B095A095909581959F4FEF
S11306E0AF4FBF4F89839A83AB83BC8389819A813F
S11306F0AB81BC810397A105B10534F481E590E099
S113070020E5FC01208328C00F2EF1E58F2E912CCB
S1130710F02D89819A81AB81BC811F921F921F9217
S11307202DEF2F930F2EF8E7AF2EB12CC12CD12C27
S1130730F02D14E1E12EF12C00E010E020E030E097
S1130740A901BC01CD0156D20F900F900F900F90CC
S1130750DC01CB01F401808380911201909113019B
S1130760A0911401B09115018D839E83AF83B88746
S11307700000209112013091130140911401509115
S113078015018D819E81AF81B88579018A01E81AAE
S1130790F90A0A0B1B0BD801C701843F9140A1053C
S11307A0B10538F300002A960FB6F894DEBF0FBEE9
S11307B0CDBFDF91CF911F910F91FF90EF90DF900C
S11307C0CF90BF90AF909F908F900895EF92FF923B
S11307D00F931F93CF93DF9300D000D000D0CDB7F9
S11307E0DEB79E838D838091260190912701A0918D
S11307F02801B091290181389A41A640B10508F039
S11308009BC08091260190912701A0912801B0916D
S1130810290186349105A105B105F0F48D819E81ED
S1130820880F991F880F991F80509F4FFC0180816A
S11308309181A281B3810197A109B1092D813E81E2
S1130840220F331F220F331F20503F4FF9018083A3
S11308509183A283B3832AC08091260190912701BA
S1130860A0912801B09129018B359105A105B1050D
S1130870E8F08D819E81880F991F880F991F805001
S11308809F4FFC0180819181A281B3810196A11DBA
S1130890B11D2D813E81220F331F220F331F2050A3
S11308A03F4FF90180839183A283B3838D819E811D
S11308B0880F991F880F991F80509F4FFC018081DA
S11308C09181A281B381853B9105A105B1059CF07D
S11308D08D819E81880F991F880F991F9C0120503C
S11308E03F4F88E790E0A0E0B0E0F9018083918376
S11308F0A283B38321C08D819E81880F991F880FA5
S1130900991F80509F4FFC0180819181A281B38106
S1130910BB2394F48D819E81880F991F880F991FA2
S11309209C0120503F4F84E190E0A0E0B0E0F90149
S113093080839183A283B38380912A0190912B01B8
S1130940A0912C01B0912D0181389A41A640B105A6
S113095008F0A2C080912A0190912B01A0912C0152
S1130960B0912D0186349105A105B10510F58D8155
S11309709E819C012F5F3F4F8D819E810196880F40
S1130980991F880F991F80509F4FFC01808191818E
S1130990A281B3810197A109B109220F331F220F4C
S11309A0331F20503F4FF90180839183A283B38387
S11309B02EC080912A0190912B01A0912C01B0911D
S11309C02D018B359105A105B10508F18D819E811D
S11309D09C012F5F3F4F8D819E810196880F991F47
S11309E0880F991F80509F4FFC0180819181A281C3
S11309F0B3810196A11DB11D220F331F220F331F96
S1130A0020503F4FF90180839183A283B3838D816A
S1130A109E810196880F991F880F991F80509F4FC0
S1130A20FC0180819181A281B381853B9105A1055F
S1130A30B105A4F08D819E810196880F991F880FBE
S1130A40991F9C0120503F4F84EB90E0A0E0B0E060
S1130A50F90180839183A283B3831EC08D819E811B
S1130A600196880F991F880F991F80509F4FFC0192
S1130A7080819181A281B381BB2374F48D819E8195
S1130A800196880F991F880F991F80509F4FFC0172
S1130A9010821182128213828091120190911301AB
S1130AA0A0911401B091150189839A83AB83BC830F
S1130AB000002091120130911301409114015091D2
S1130AC0150189819A81AB81BC8179018A01E81A77
S1130AD0F90A0A0B1B0BD801C701843F9140A105F9
S1130AE0B10538F3000026960FB6F894DEBF0FBEAA
S1130AF0CDBFDF91CF911F910F91FF90EF9008959B
S1130B00EF92FF920F931F93CF93DF9300D0CDB753
S1130B10DEB79A83898380E390E0FC018081882F8B
S1130B2090E0098002C0959587950A94E2F7817058
S1130B309927892BB1F08091120190911301A09112
S1130B401401B091150129813A81220F331F220F1C
S1130B50331F2A5E3E4FF90180839183A283B383BE
S1130B603FC085E390E0FC01108289819A81880F5F
S1130B70991F880F991F8A5E9E4FFC018081918185
S1130B80A281B381892B8A2B8B2B51F120911201E5
S1130B9030911301409114015091150189819A817A
S1130BA0880F991F880F991F8A5E9E4FFC018081D0
S1130BB09181A281B38179018A01E81AF90A0A0BA9
S1130BC01B0BD801C70129813A81220F331F220F41
S1130BD0331F2A5D3E4FF90180839183A283B3833F
S1130BE000000F900F90DF91CF911F910F91FF9014
S1130BF0EF900895AF92BF92CF92DF92EF92FF925F
S1130C000F931F93CF93DF93CDB7DEB764970FB6DF
S1130C10F894DEBF0FBECDBF6D837E838F8398872C
S1130C2029873A874B875C87ED86FE860F87188B6A
S1130C30A98ABA8ACB8ADC8A2D813E814F81588564
S1130C408D859E85AF85B88982179307A407B5075C
S1130C504CF48D859E85AF85B8898D839E83AF8343
S1130C60B88715C02D813E814F81588589859A8525
S1130C70AB85BC85281739074A075B0744F4898587
S1130C809A85AB85BC858D839E83AF83B8872D8180
S1130C903E814F81588589859A85AB85BC857901CC
S1130CA08A01E81AF90A0A0B1B0B29A13AA14BA1E4
S1130CB05CA189899A89AB89BC8959016A01A81AFE
S1130CC0B90ACA0ADB0AD601C501A8019701BC0109
S1130CD0CD0138D07B018C012D853E854F85588907
S1130CE089859A85AB85BC85281B390B4A0B5B0B20
S1130CF0C801B70136D0DA01C9019C01AD01898967
S1130D009A89AB89BC89820F931FA41FB51F89835D
S1130D109A83AB83BC8389819A81AB81BC81BC01FA
S1130D20CD0164960FB6F894DEBF0FBECDBFDF9140
S1130D30CF911F910F91FF90EF90DF90CF90BF90D4
S1130D40AF900895DB018F939F9327D0BF91AF910C
S1130D50A29F800D911DA39F900DB29F900D112411
S1130D600895052E97FB16F400940FD057FD05D077
S1130D701ED007FC02D046F408C05095409530952B
S1130D8021953F4F4F4F5F4F0895909580957095F3
S1130D9061957F4F8F4F9F4F08952BD0A59F900D46
S1130DA0B49F900DA49F800D911D11240895A1E27C
S1130DB01A2EAA1BBB1BFD010DC0AA1FBB1FEE1FD1
S1130DC0FF1FA217B307E407F50720F0A21BB30B1C
S1130DD0E40BF50B661F771F881F991F1A9469F798
S1130DE060957095809590959B01AC01BD01CF01F4
S1130DF00895A29FB001B39FC001A39F700D811DF0
S1130E001124911DB29F700D811D1124911D08950F
S1070E10F894FFCF80
S1130E145A0000005A0000005A0000005A00000062
S9030000FC
