:1000000045C000004BC0000049C0000047C00000D0
:1000100045C0000043C0000041C000003FC00000D8
:100020003DC000003BC0000039C0000037C00000E8
:1000300035C0000033C0000031C000002FC00000F8
:100040002DC000002BC0000029C0000027C0000008
:1000500025C0000023C0000021C000001FC0000018
:100060001DC000001BC0000019C0000017C0000028
:1000700015C0000013C0000011C000000FC0000038
:100080000DC000000BC0000009C0000011241FBEFD
:10009000CFEFD0E1DEBFCDBF02D072C2B1CFCF93E0
:1000A000DF93CDB7DEB7A0970FB6F894DEBF0FBED3
:1000B000CDBF19821A821B821C828BE290E0FC0168
:1000C00010828AE290E028E0FC01208385E990E03C
:1000D00026E0FC01208380E990E0FC01108289E2A7
:1000E00090E027E6FC01208386E290E027E8FC010F
:1000F000208387E290E020E4FC01208380E090E010
:10010000A0EAB0E489879A87AB87BC8720E030E01B
:100110004AE755E469857A858B859C85A6D1DC0103
:10012000CB018D879E87AF87B88B20E030E040E819
:100130005FE36D857E858F85988916D188232CF4A1
:1001400081E090E09A8B898B3BC020E03FEF4FE746
:1001500057E46D857E858F85988983D118163CF587
:1001600020E030E040E251E469857A858B859C850A
:100170007CD1DC01CB01BC01CD01FAD0DC01CB018B
:100180009A8B898B0FC080E991E09C8B8B8B8B893C
:100190009C890197F1F79C8B8B8B89899A890197B0
:1001A0009A8B898B89899A89892B69F713C06D8508
:1001B0007E858F859889DCD0DC01CB019A8B898B79
:1001C00089899A899E8B8D8B8D899E890197F1F7FC
:1001D0009E8B8D8B86E290E026E230E0F901208153
:1001E0002064FC012083000086E290E0FC01808115
:1001F000882F90E080749927892BB1F786E290E0F0
:1002000026E230E0F90120812061FC0120838FEF9C
:1002100090E08FD08FEF90E08CD084E290E0FC01F2
:100220008081882F90E085D085E290E0FC0180817C
:10023000882F90E07ED08EEF90E07BD08EEF90E024
:1002400078D000008BE290E0FC018081882F90E064
:1002500080729927892BB1F380E090E0AAEFB3E494
:100260008D839E83AF83B88720E030E04AE755E472
:100270006D817E818F819885F8D0DC01CB018F8BD9
:10028000988FA98FBA8F20E030E040E85FE36F8954
:10029000788D898D9A8D68D088232CF481E090E048
:1002A0009C8F8B8F3BC020E03FEF4FE757E46F8977
:1002B000788D898D9A8DD5D018163CF520E030E0E8
:1002C00040E251E46D817E818F819885CED0DC0142
:1002D000CB01BC01CD014CD0DC01CB019C8F8B8FBD
:1002E0000FC080E991E09E8F8D8F8D8D9E8D01973F
:1002F000F1F79E8F8D8F8B8D9C8D01979C8F8B8FAF
:100300008B8D9C8D892B69F713C06F89788D898DB2
:100310009A8D2ED0DC01CB019C8F8B8F8B8D9C8D89
:1003200098A38F8F8F8D98A10197F1F798A38F8F46
:1003300051CFCF93DF931F92CDB7DEB789830000F3
:100340008BE290E0FC018081882F90E080729927F9
:10035000892BB1F38CE290E02981FC01208300001D
:100360000F90DF91CF9108952FD008F481E0089588
:1003700057D088F09F5790F0B92F9927B751A0F028
:10038000D1F0660F771F881F991F1AF0BA95C9F729
:1003900012C0B13081F05ED0B1E008955BC0672F2C
:1003A000782F8827B85F39F0B93FCCF386957795D9
:1003B0006795B395D9F73EF49095809570956195C2
:1003C0007F4F8F4F9F4F0895990F0008550FAA0B2D
:1003D000E0E8FEEF16161706E807F907C0F0121658
:1003E0001306E407F50798F0621B730B840B950B5B
:1003F00039F40A2661F0232B242B252B21F40895B0
:100400000A2609F4A140A6958FEF811D811D08954C
:1004100057FD9058440F551F59F05F3F71F04795B5
:10042000880F97FB991F61F09F3F79F0879508959A
:10043000121613061406551FF2CF4695F1DF08C0B9
:10044000161617061806991FF1CF869571056105D6
:1004500008940895E894BB2766277727CB0197F97E
:100460000895B2DF08F48FEF08950BD078C069D0FB
:1004700028F06ED018F0952309F05AC05FC01124FF
:10048000EACFC6DFA0F3959FD1F3950F50E0551F3B
:10049000629FF001729FBB27F00DB11D639FAA27D9
:1004A000F00DB11DAA1F649F6627B00DA11D661F28
:1004B000829F2227B00DA11D621F739FB00DA11D49
:1004C000621F839FA00D611D221F749F3327A00D03
:1004D000611D231F849F600D211D822F762F6A2F9F
:1004E00011249F5750408AF0E1F088234AF0EE0F24
:1004F000FF1FBB1F661F771F881F91505040A9F731
:100500009E3F510570F014C0A6CF5F3FECF3983EBC
:10051000DCF3869577956795B795F795E7959F5F97
:10052000C1F7FE2B880F911D9695879597F9089531
:1005300097F99F6780E870E060E008959FEF80EC96
:10054000089500240A941616170618060906089539
:1005500000240A9412161306140605060895092E9F
:100560000394000C11F4882352F0BB0F40F4BF2B0E
:1005700011F460FF04C06F5F7F4F8F4F9F4F08954E
:04058000F894FFCF1D
:00000001FF
