:1000000045C0000029C10000DFC100005CC0000045
:100010005AC0000058C0000056C0000054C0000084
:1000200052C0000050C000004EC000004CC0000094
:100030004AC0000048C00000CFC0000044C000001B
:1000400042C0000040C000003EC000003CC00000B4
:100050003AC0000038C0000036C0000034C00000C4
:1000600032C0000030C000002EC000002CC00000D4
:100070002AC0000028C0000026C0000024C00000E4
:1000800022C0000020C000001EC0000011241FBEBE
:10009000CFEFD0E1DEBFCDBF11E0A0E0B1E0EAEEEE
:1000A000F5E000E00BBF02C007900D92A431B1074C
:1000B000D9F721E0A4E1B1E001C01D92A034B2075C
:1000C000E1F702D090C29CCF81E08EBD87B78460FB
:1000D00087BF84ED9EEF9DBD8CBD8AEA80938B0027
:1000E0008AE180938A0010928C0080E49CE99093CE
:1000F00081008093800082B1886382B985E080931B
:100100006A0083E089BF80EF87BB789400E011E04C
:10011000612C712C812C912C0F2EF4EBAF2EF02D35
:10012000B12CD0E0C0E00F2EF6E8CF2ED12CF02D70
:100130000F2EF4E8EF2EF12CF02DF8018081918143
:10014000A281B381BB2324F4862D972DA82DB92D30
:100150009C01AD01853B9105A105B10524F02A2D37
:100160003B2D4D2F5C2FA0EABFE002D22A2D3B2D64
:100170004D2F5C2FE1D1DA01C90188519C4FAF4F5F
:10018000BF4FF60191838083F80184819581A68118
:10019000B781BB2324F4862D972DA82DB92D9C0162
:1001A000AD01853B9105A105B10524F02A2D3B2D1C
:1001B0004D2F5C2FA0EABFE0DBD12A2D3B2D4D2F28
:1001C0005C2FBAD1DA01C90188519C4FAF4FBF4FA4
:1001D000F70191838083B1CF1F920F920FB60F92D8
:1001E00011242F938F939F93AF93BF9384ED9EEF32
:1001F0009DBD8CBD80913C0190913D01A0913E013F
:10020000B0913F010196A11DB11D80933C019093D7
:100210003D01A0933E01B0933F0180913C0190913C
:100220003D01A0913E01B0913F0181369A4EA1055A
:10023000B10540F010923C0110923D0110923E0138
:1002400010923F01BF91AF919F918F912F910F908D
:100250000FBE0F901F9018951F920F920FB60F921E
:1002600011240BB60F924F935F936F937F938F93ED
:100270009F93AF93BF93EF93FF93809B11C08091A7
:100280003C0190913D01A0913E01B0913F018093CE
:10029000280190932901A0932A01B0932B0183C0D8
:1002A0008091280190912901A0912A01B0912B0100
:1002B000892B8A2B8B2B09F476C080913C0190917D
:1002C0003D01A0913E01B0913F0140912801509124
:1002D000290160912A0170912B01841B950BA60BBB
:1002E000B70BE4E1F1E080839183A283B383808143
:1002F0009181A281B38181359105A105B10570F08D
:10030000E0E0F1E080819181A281B3810196A11D9D
:10031000B11D80839183A283B38319C0809114019E
:1003200090911501A0911601B0911701CC97A105EC
:10033000B10568F4E0E0F1E080819181A281B381B0
:100340000197A109B10980839183A283B38380912E
:10035000000190910101A0910201B0910301853B40
:100360009105A105B1056CF084EB90E0A0E0B0E050
:100370008093000190930101A0930201B0930301C7
:1003800012C08091000190910101A0910201B091F1
:100390000301BB2344F4109200011092010110925A
:1003A000020110920301FF91EF91BF91AF919F91D4
:1003B0008F917F916F915F914F910F900BBE0F9036
:1003C0000FBE0F901F9018951F920F920FB60F92AD
:1003D00011240BB60F924F935F936F937F938F937C
:1003E0009F93AF93BF93EF93FF93819B11C0809135
:1003F0003C0190913D01A0913E01B0913F0180935D
:100400002C0190932D01A0932E01B0932F0183C056
:1004100080912C0190912D01A0912E01B0912F017E
:10042000892B8A2B8B2B09F476C080913C0190910B
:100430003D01A0913E01B0913F0140912C015091AE
:100440002D0160912E0170912F01841B950BA60B3D
:10045000B70BE4E1F1E084839583A683B7838481BD
:100460009581A681B78181359105A105B10570F00F
:10047000E0E0F1E084819581A681B7810196A11D1C
:10048000B11D84839583A683B78319C08091180119
:1004900090911901A0911A01B0911B01CC97A1056F
:1004A000B10568F4E0E0F1E084819581A681B7812F
:1004B0000197A109B10984839583A683B7838091AD
:1004C000040190910501A0910601B0910701853BBF
:1004D0009105A105B1056CF084EB90E0A0E0B0E0DF
:1004E0008093040190930501A0930601B093070146
:1004F00012C08091040190910501A0910601B09174
:100500000701BB2344F410920401109205011092DC
:10051000060110920701FF91EF91BF91AF919F915A
:100520008F917F916F915F914F910F900BBE0F90C4
:100530000FBE0F901F901895052E97FB16F4009490
:100540000FD057FD05D01ED007FC02D046F408C0DE
:1005500050954095309521953F4F4F4F5F4F0895EF
:1005600090958095709561957F4F8F4F9F4F08951F
:100570002BD0A59F900DB49F900DA49F800D911D31
:1005800011240895A1E21A2EAA1BBB1BFD010DC068
:10059000AA1FBB1FEE1FFF1FA217B307E407F50733
:1005A00020F0A21BB30BE40BF50B661F771F881F0F
:1005B000991F1A9469F760957095809590959B01A5
:1005C000AC01BD01CF010895A29FB001B39FC0014E
:1005D000A39F700D811D1124911DB29F700D811D6F
:0A05E0001124911D0895F894FFCF37
:1005EA005A0000005A0000005A0000005A00000099
:0405FA005A000000A3
:00000001FF
