:1000000045C00000EEC0000051C000004FC000001D
:100010004DC000004BC0000049C0000047C00000B8
:1000200045C0000043C0000041C000003FC00000C8
:100030003DC000003BC000009FC0000037C0000072
:1000400035C0000033C0000031C000002FC00000E8
:100050002DC000002BC0000029C0000027C00000F8
:1000600025C0000023C0000021C000001FC0000008
:100070001DC000001BC0000019C0000017C0000018
:1000800015C0000013C0000011C0000011241FBEE5
:10009000CFEFD0E1DEBFCDBF21E0A0E0B1E001C0F5
:1000A0001D92A731B207E1F702D01CC1A9CFCF93AF
:1000B000DF93CDB7DEB78BE290E0FC0110828AE2DD
:1000C00090E028E1FC01208385E990E026E0FC0136
:1000D000208380E990E0FC01108289E290E027E62D
:1000E000FC0120838EE490E022E0FC01208387E580
:1000F00090E024E0FC0120838CE490E020EE31EBE2
:10010000FC01318320838BE890E022E8FC0120830E
:100110008AE890E02AE1FC0120838CE890E0FC0171
:10012000108280E890E020E43CE9FC0131832083E8
:1001300082E290E02FE0FC0120838AE690E025E552
:10014000FC0120838AE590E021E0FC01208389E521
:1001500090E02FE1FC012083789481E390E0FC01A2
:10016000108287E390E023E0FC01208388E390E0A5
:1001700023E0FC012083FFCF1F920F9200905F00CD
:100180000F92112400905B000F922F933F938F9357
:100190009F93EF93FF93CF93DF93CDB7DEB78CE4BC
:1001A00090E020EE31EBFC0131832083809100014F
:1001B000909101010196909301018093000100004C
:1001C000DF91CF91FF91EF919F918F913F912F916F
:1001D0000F9000925B000F9000925F000F901F90B5
:1001E00018951F920F9200905F000F9211240090BB
:1001F0005B000F922F933F934F935F936F937F9387
:100200008F939F93AF93BF93EF93FF93CF93DF931E
:10021000CDB7DEB783E690E04AD080E390E0FC0102
:100220008081882F90E081709927892B61F08091DF
:10023000000190910101909303018093020182E6F5
:1002400090E035D01CC081E690E031D08091020171
:1002500090910301892B99F02091000130910101C7
:100260008091020190910301A901481B590BCA0119
:1002700090930D0180930C0181E0809316010000A2
:10028000DF91CF91FF91EF91BF91AF919F918F91AE
:100290007F916F915F914F913F912F910F900092BD
:1002A0005B000F9000925F000F901F901895CF9306
:1002B000DF931F92CDB7DEB7898300008BE290E019
:1002C000FC018081882F90E080729927892BB1F3FF
:1002D0008CE290E02981FC01208300000F90DF91E7
:0802E000CF910895F894FFCFBF
:00000001FF
