:1000000045C0000053C0000051C000004FC00000B8
:100010004DC000004BC0000049C0000047C00000B8
:1000200045C0000043C0000041C0000040C00000C7
:100030003DC000003BC0000039C0000037C00000D8
:1000400035C0000033C0000031C000002FC00000E8
:100050002DC000002BC0000029C0000027C00000F8
:1000600025C0000023C0000021C000001FC0000008
:100070001DC000001BC0000019C0000017C0000018
:1000800015C0000013C0000011C0000011241FBEE5
:10009000CFEFD0E1DEBFCDBF21E0A0E0B1E001C0F5
:1000A0001D92A530B207E1F72FD0ECC2A9CF1F9265
:1000B0000F920FB60F9211248F939F930EB406FEEA
:1000C0000BC086B597B5909303018093020181E040
:1000D0008EBD809304010DC080910401813049F4EC
:1000E00086B597B5909301018093000182E08093DB
:1000F00004019F918F910F900FBE0F901F90189544
:100100005D9BFECF8CB908951FBC81E08EBD10921F
:100110007A0081E287BF84E690E09DBD8CBD8B9A1A
:100120001BB888E98AB986E0809395001092900008
:1001300087E689B97894C1E411E06894332431F8F2
:1001400003E0D8E08091040181110CC0CEBD12BA49
:100150000000D2BB23E02A95F1F700C01DBC1CBCF7
:1001600012BAF0CF813071F486B597B5893E9D4FB4
:1001700048F31092030110920201109201011092B3
:100180000001E0CF8230F1F6609100017091010131
:100190008091020190910301681B790B80E090E04F
:1001A00058D126E636E646E151E4BFD02B013C01AA
:1001B00024D16B017C0180E090E04BD19B01AC012C
:1001C000C301B2014DD020E030E040E251E4D3D190
:1001D00014D12B013C01DD24B60180E090E039D13F
:1001E0004B015C0120E030E040EF51E4C0D1181633
:1001F000A4F020E030E040EA51E4C501B401B7D1F9
:1002000018166CF020E030E040E251E4C501B40182
:10021000AED1181634F0F02E05C0F12C03C0F12E2B
:1002200001C0F32C8FEF90E06BDFC60169DFC201E4
:1002300067DF8F2D90E064DF87EA91E60197F1F7A1
:1002400000C000001DBC1CBCCEBD10920401109269
:10025000010110920001109203011092020172CF6D
:100260005058BB27AA270ED048C139D130F03ED113
:1002700020F031F49F3F11F41EF42EC10EF4E095EE
:10028000E7FB24C1E92F4AD180F3BA17620773074D
:100290008407950718F071F49EF562C10EF4E0959D
:1002A0000B2EBA2FA02D0B01B90190010C01CA0130
:1002B000A0011124FF27591B99F0593F50F4503EDB
:1002C00068F11A16F040A22F232F342F4427585FCD
:1002D000F3CF469537952795A795F0405395C9F7E5
:1002E0007EF41F16BA0B620B730B840BBAF091509D
:1002F000A1F0FF0FBB1F661F771F881FC2F70EC03C
:10030000BA0F621F731F841F48F48795779567950E
:10031000B795F7959E3F08F0B3CF9395880F08F0F7
:100320009927EE0F9795879508950CD0E6C0DED0FB
:1003300040F0D5D030F021F45F3F19F0C7C0511123
:1003400010C1CAC0EBD098F39923C9F35523B1F378
:10035000951B550BBB27AA2762177307840738F034
:100360009F5F5F4F220F331F441FAA1FA9F333D093
:100370000E2E3AF0E0E830D091505040E695001C47
:10038000CAF729D0FE2F27D0660F771F881FBB1F03
:10039000261737074807AB07B0E809F0BB0B802DDD
:1003A000BF01FF2793585F4F2AF09E3F510568F029
:1003B0008DC0D7C05F3FECF3983EDCF38695779510
:1003C0006795B795F7959F5FC9F7880F911D96952B
:1003D000879597F90895E1E0660F771F881FBB1F87
:1003E000621773078407BA0720F0621B730B840B34
:1003F000BA0BEE1F88F7E095089598D088F09F57C4
:1004000090F0B92F9927B751A0F0D1F0660F771F60
:10041000881F991F1AF0BA95C9F712C0B13081F040
:100420009FD0B1E008959CC0672F782F8827B85FD0
:1004300039F0B93FCCF3869577956795B395D9F7A1
:100440003EF490958095709561957F4F8F4F9F4FAB
:100450000895E89409C097FB3EF4909580957095B7
:1004600061957F4F8F4F9F4F9923A9F0F92F96E900
:10047000BB279395F695879577956795B795F11175
:10048000F8CFFAF4BB0F11F460FF1BC06F5F7F4F12
:100490008F4F9F4F16C0882311F096E911C0772324
:1004A00021F09EE8872F762F05C0662371F096E82D
:1004B000862F70E060E02AF09A95660F771F881FFC
:1004C000DAF7880F9695879597F9089597F99F67BA
:1004D00080E870E060E008959FEF80EC08950024CC
:1004E0000A941616170618060906089500240A9499
:1004F00012161306140605060895092E0394000C1F
:1005000011F4882352F0BB0F40F4BF2B11F460FFAD
:1005100004C06F5F7F4F8F4F9F4F089557FD9058D6
:10052000440F551F59F05F3F71F04795880F97FBB7
:10053000991F61F09F3F79F0879508951216130671
:100540001406551FF2CF4695F1DF08C016161706A0
:100550001806991FF1CF86957105610508940895D5
:10056000E894BB2766277727CB0197F9089566D0D3
:1005700008F48FEF08950BD0C0CFB1DF28F0B6DFBD
:1005800018F0952309F0A2CFA7CF1124EACFC6DF38
:10059000A0F3959FD1F3950F50E0551F629FF00196
:1005A000729FBB27F00DB11D639FAA27F00DB11DEF
:1005B000AA1F649F6627B00DA11D661F829F222778
:1005C000B00DA11D621F739FB00DA11D621F839FFF
:1005D000A00D611D221F749F3327A00D611D231FD5
:1005E000849F600D211D822F762F6A2F11249F5723
:1005F00050408AF0E1F088234AF0EE0FFF1FBB1F46
:10060000661F771F881F91505040A9F79E3F5105E4
:1006100070F05CCFA6CF5F3FECF3983EDCF386959D
:1006200077956795B795F795E7959F5FC1F7FE2B8F
:10063000880F911D9695879597F90895990F000851
:10064000550FAA0BE0E8FEEF16161706E807F907A4
:10065000C0F012161306E407F50798F0621B730B3F
:10066000840B950B39F40A2661F0232B242B252BC0
:1006700021F408950A2609F4A140A6958FEF811D63
:08068000811D0895F894FFCFDD
:00000001FF
