:1000000045C0000021C10000C5C1000042C200007F
:10001000C2C200003FC3000049C0000047C000004A
:1000200045C0000043C0000041C000003FC00000C8
:100030003DC000003BC0000039C0000037C00000D8
:10004000C4C0000033C0000031C000002FC0000059
:100050002DC000002BC0000029C0000027C00000F8
:1000600025C0000023C0000021C000001FC0000008
:100070001DC000001BC0000019C0000017C0000018
:1000800015C0000013C0000011C0000011241FBEE5
:10009000CFEFD0E1DEBFCDBF21E0A0E0B1E001C0F5
:1000A0001D92A233B207E1F702D08EC3A9CFEF921F
:1000B000FF920F931F93CF93DF9300D000D0CDB763
:1000C000DEB78BE290E0FC0110828AE290E028E14A
:1000D000FC01208385E990E026E0FC01208380E993
:1000E00090E0FC01108289E290E027E6FC01208389
:1000F00083E590E026E0FC01208387E590E027E59A
:1001000030E0F90120812160FC01208382E590E04C
:100110002BE9FC0120838BE890E022E8FC0120839E
:100120008AE890E02AE1FC0120838CE890E0FC0161
:10013000108280E890E020E43CE9FC0131832083D8
:1001400082E290E02FE0FC0120838AE690E025E542
:10015000FC0120838AE590E021E0FC01208389E511
:1001600090E02FE1FC012083789481E690E021E08B
:10017000FC01208382E690E0FC0110828091000166
:1001800090910101A0910201B091030189839A83AA
:10019000AB83BC83000020910001309101014091AC
:1001A00002015091030189819A81AB81BC8179015F
:1001B0008A01E81AF90A0A0B1B0BD801C701843F10
:1001C0009140A105B10538F3D9CF1F920F9200904D
:1001D0005F000F92112400905B000F922F938F937A
:1001E0009F93AF93BF93EF93FF93CF93DF93CDB7DD
:1001F000DEB78091000190910101A0910201B091C0
:1002000003010196A11DB11D80930001909301018E
:10021000A0930201B093030182E590E023E8FC0182
:1002200020830000DF91CF91FF91EF91BF91AF91BB
:100230009F918F912F910F9000925B000F900092F1
:100240005F000F901F9018951F920F9200905F0013
:100250000F92112400905B000F92EF92FF920F9388
:100260001F932F933F934F935F936F937F938F933E
:100270009F93AF93BF93EF93FF93CF93DF93CDB74C
:10028000DEB780E390E0FC018081882F90E08170F0
:100290009927892BB1F08091000190910101A091E3
:1002A0000201B09103018093050190930601A09390
:1002B0000701B093080182E690E021E0FC01208371
:1002C00033C08091050190910601A0910701B09182
:1002D0000801892B8A2B8B2B39F182E690E0FC01F7
:1002E0001082209100013091010140910201509152
:1002F00003018091050190910601A0910701B09141
:10030000080179018A01E81AF90A0A0B1B0BD801C6
:10031000C7018093190190931A01A0931B01B09318
:100320001C0181E080932D018091000190910101D9
:10033000A0910201B0910301BC01CD012AD28091AC
:10034000000190910101A0910201B0910301892F58
:100350009A2FAB2FBB27BC01CD011BD20000DF9130
:10036000CF91FF91EF91BF91AF919F918F917F912D
:100370006F915F914F913F912F911F910F91FF903E
:10038000EF900F9000925B000F9000925F000F9033
:100390001F9018951F920F9200905F000F921124EA
:1003A00000905B000F92EF92FF920F931F932F9399
:1003B0003F934F935F938F939F93AF93BF93EF932D
:1003C000FF93CF93DF93CDB7DEB780E390E0FC01DE
:1003D0008081882F90E082709927892B89F0809105
:1003E000000190910101A0910201B091030180935D
:1003F000090190930A01A0930B01B0930C012FC047
:100400008091090190910A01A0910B01B0910C011A
:10041000892B8A2B8B2B19F120910001309101013E
:1004200040910201509103018091090190910A01CC
:10043000A0910B01B0910C0179018A01E81AF90A27
:100440000A0B1B0BD801C70180931D0190931E015D
:10045000A0931F01B093200181E080932E01000042
:10046000DF91CF91FF91EF91BF91AF919F918F91CC
:100470005F914F913F912F911F910F91FF90EF90BE
:100480000F9000925B000F9000925F000F901F9002
:1004900018951F920F9200905F000F921124009008
:1004A0005B000F92EF92FF920F931F932F933F9356
:1004B0004F935F938F939F93AF93BF93EF93FF936C
:1004C000CF93DF93CDB7DEB780E390E0FC0180816E
:1004D000882F90E084709927892BA1F080910001EA
:1004E00090910101A0910201B09103018093050157
:1004F00090930601A0930701B093080185E08093D3
:1005000004012FC080910D0190910E01A0910F0167
:10051000B0911001892B8A2B8B2B19F120910001AE
:1005200030910101409102015091030180910D0130
:1005300090910E01A0910F01B091100179018A01F3
:10054000E81AF90A0A0B1B0BD801C7018093210195
:1005500090932201A0932301B093240181E0809322
:100560002F010000DF91CF91FF91EF91BF91AF91EB
:100570009F918F915F914F913F912F911F910F917B
:10058000FF90EF900F9000925B000F9000925F0041
:100590000F901F9018951F920F9200905F000F927E
:1005A000112400905B000F92EF92FF920F931F9324
:1005B0002F933F934F935F938F939F93AF93BF93EB
:1005C000EF93FF93CF93DF93CDB7DEB780E390E057
:1005D000FC018081882F90E088709927892B89F011
:1005E0008091000190910101A0910201B09103015D
:1005F0008093110190931201A0931301B093140101
:100600002FC08091110190911201A0911301B0911E
:100610001401892B8A2B8B2B19F120910001309129
:1006200001014091020150910301809111019091CB
:100630001201A0911301B091140179018A01E81A05
:10064000F90A0A0B1B0BD801C7018093250190936F
:100650002601A0932701B093280181E08093300107
:100660000000DF91CF91FF91EF91BF91AF919F91EA
:100670008F915F914F913F912F911F910F91FF901B
:10068000EF900F9000925B000F9000925F000F9030
:100690001F9018951F920F9200905F000F921124E7
:1006A00000905B000F92EF92FF920F931F932F9396
:1006B0003F934F935F938F939F93AF93BF93EF932A
:1006C000FF93CF93DF93CDB7DEB781E290E0FC01DB
:1006D0008081882F90E080719927892B89F0809103
:1006E000000190910101A0910201B091030180935A
:1006F000150190931601A0931701B09318012FC014
:100700008091150190911601A0911701B0911801E7
:10071000892B8A2B8B2B19F120910001309101013B
:1007200040910201509103018091150190911601B1
:10073000A0911701B091180179018A01E81AF90A0C
:100740000A0B1B0BD801C7018093290190932A0142
:10075000A0932B01B0932C0181E080933101000024
:10076000DF91CF91FF91EF91BF91AF919F918F91C9
:100770005F914F913F912F911F910F91FF90EF90BB
:100780000F9000925B000F9000925F000F901F90FF
:100790001895CF93DF931F92CDB7DEB78983000002
:1007A0008BE290E0FC018081882F90E08072992795
:1007B000892BB1F38CE290E02981FC0120830000B9
:0C07C0000F90DF91CF910895F894FFCFC7
:00000001FF
