:1000000045C0000038C100005FC1000054C00000BE
:1000100052C0000050C000004EC000004CC00000A4
:100020004AC0000048C0000046C0000044C00000B4
:1000300042C0000040C000003EC000003CC00000C4
:100040003AC0000038C00000EBC0000034C000001F
:1000500032C0000030C000002EC000002CC00000E4
:100060002AC0000028C0000026C0000024C00000F4
:1000700022C0000020C000001EC000001CC0000004
:100080001AC0000018C0000016C0000011241FBED6
:10009000CFEFD0E1DEBFCDBF11E0A0E0B1E0E2E8FC
:1000A000F5E000E00BBF02C007900D92A230B1074F
:1000B000D9F702D064C2A4CFCF93DF93CDB7DEB718
:1000C0002E970FB6F894DEBF0FBECDBF81E390E050
:1000D00020EFFC01208382E390E023E0FC012083F9
:1000E00087E390E02FEFFC0120838AE690E02AE08E
:1000F000FC01208389E590E023E0FC0120838BE272
:1001000090E0FC0110828AE290E028E9FC01208363
:1001100085E990E026E0FC01208380E990E0FC0185
:10012000108289E290E027E6FC012083789488E33E
:1001300090E0209100012095FC0120838091000136
:10014000882F90E0F5D080E090E0A8ECB2E48983BD
:100150009A83AB83BC8320E030E04AE755E46981B1
:100160007A818B819C8180D1DC01CB018D839E8340
:10017000AF83B88720E030E040E85FE36D817E81A7
:100180008F819885F0D088232CF481E090E09A87C5
:1001900089873BC020E03FEF4FE757E46D817E81C8
:1001A0008F8198855DD118163CF520E030E040E263
:1001B00051E469817A818B819C8156D1DC01CB012C
:1001C000BC01CD01D4D0DC01CB019A8789870FC057
:1001D00080E991E09C878B878B859C850197F1F75F
:1001E0009C878B8789859A8501979A8789878985D6
:1001F0009A85892B69F713C06D817E818F819885DF
:10020000B6D0DC01CB019A87898789859A859E873C
:100210008D878D859E850197F1F79E878D8787CF86
:100220001F920F9200905F000F92112400905B00CC
:100230000F928F939F93EF93FF93CF93DF931F9230
:10024000CDB7DEB78CE290E0FC01808189838981A3
:100250008093000100000F90DF91CF91FF91EF910B
:100260009F918F910F9000925B000F9000925F0022
:100270000F901F9018951F920F9200905F000F92A1
:1002800011248F93CF93DF93CDB7DEB78091000118
:1002900088235CF480910001880F80930001809195
:1002A000000181608093000105C080910001880FEA
:1002B000809300010000DF91CF918F910F90009209
:1002C0005F000F901F9018951F920F9200905F0093
:1002D0000F9211248F939F93CF93DF93CDB7DEB707
:1002E00080910001882F90E081709927892B59F027
:1002F00080910001869580930001809100018068C3
:10030000809300010AC080910001869580930001CE
:10031000809100018F77809300010000DF91CF91E1
:100320009F918F910F9000925F000F901F901895F2
:10033000CF93DF931F92CDB7DEB7898300008BE2A6
:1003400090E0FC018081882F90E080729927892BB2
:10035000B1F38CE290E02981FC01208300000F9032
:10036000DF91CF9108952FD008F481E0089557D000
:1003700088F09F5790F0B92F9927B751A0F0D1F08E
:10038000660F771F881F991F1AF0BA95C9F712C018
:10039000B13081F05ED0B1E008955BC0672F782F57
:1003A0008827B85F39F0B93FCCF386957795679584
:1003B000B395D9F73EF490958095709561957F4FF0
:1003C0008F4F9F4F0895990F0008550FAA0BE0E833
:1003D000FEEF16161706E807F907C0F01216130607
:1003E000E407F50798F0621B730B840B950B39F447
:1003F0000A2661F0232B242B252B21F408950A26AD
:1004000009F4A140A6958FEF811D811D089557FD28
:100410009058440F551F59F05F3F71F04795880F72
:1004200097FB991F61F09F3F79F087950895121609
:1004300013061406551FF2CF4695F1DF08C01616B5
:1004400017061806991FF1CF869571056105089466
:100450000895E894BB2766277727CB0197F908957D
:10046000B2DF08F48FEF08950BD078C069D028F080
:100470006ED018F0952309F05AC05FC01124EACF5E
:10048000C6DFA0F3959FD1F3950F50E0551F629FF3
:10049000F001729FBB27F00DB11D639FAA27F00DDD
:1004A000B11DAA1F649F6627B00DA11D661F829F04
:1004B0002227B00DA11D621F739FB00DA11D621FE9
:1004C000839FA00D611D221F749F3327A00D611D06
:1004D000231F849F600D211D822F762F6A2F1124E8
:1004E0009F5750408AF0E1F088234AF0EE0FFF1F3B
:1004F000BB1F661F771F881F91505040A9F79E3F72
:10050000510570F014C0A6CF5F3FECF3983EDCF3CA
:10051000869577956795B795F795E7959F5FC1F7AE
:10052000FE2B880F911D9695879597F9089597F959
:100530009F6780E870E060E008959FEF80EC089589
:1005400000240A94161617061806090608950024B2
:100550000A9412161306140605060895092E03942C
:10056000000C11F4882352F0BB0F40F4BF2B11F4A0
:1005700060FF04C06F5F7F4F8F4F9F4F0895F894C7
:02058000FFCFAB
:02058200010076
:00000001FF
