S016000048575F303632365F4D50335F30332E7372656351
S113000045C0000053C0000051C000004FC00000B4
S11300104DC000004BC0000049C0000047C00000B4
S113002045C0000043C0000041C000003FC00000C4
S11300303DC000003BC0000039C0000037C00000D4
S113004035C0000033C000005AC000002FC00000BB
S11300502DC000002BC0000029C0000027C00000F4
S113006025C0000023C0000021C000001FC0000004
S11300701DC000001BC000001AC0000017C0000013
S113008015C0000013C0000011C0000011241FBEE1
S1130090CFEFD0E1DEBFCDBF21E0A0E0B1E001C0F1
S11300A01D92A836B207E1F79BD0FDC3A9CF1F92DA
S11300B00F9200905F000F92112400905B000F924A
S11300C08F939F93EF93FF93CF93DF931F92CDB7BB
S11300D0DEB78CE990E0FC018081898300000F90F9
S11300E0DF91CF91FF91EF919F918F910F900092AB
S11300F05B000F9000925F000F901F9018951F9265
S11301000F9200905F000F92112400905B000F92F9
S11301102F933F934F935F936F937F938F939F930B
S1130120AF93BF93EF93FF93CF93DF931F92CDB71A
S1130130DEB78CE290E0FC0180818983809100012C
S1130140909101018E5F9E4F2981FC012083809153
S113015000019091010101969093010180930001A7
S1130160809100019091010105970CF180910201A9
S11301708F3FC9F4809103018F3FA9F48091050159
S11301808E3F89F4809106018E3F69F480910401C9
S11301908093660180916601882F90E040E050E0F2
S11301A060E070E0C4D110920101109200010000DF
S11301B00F90DF91CF91FF91EF91BF91AF919F91FC
S11301C08F917F916F915F914F913F912F910F90FC
S11301D000925B000F9000925F000F901F901895A3
S11301E0CF93DF93CDB7DEB7AA970FB6F894DEBFEF
S11301F00FBECDBF8BE990E0FC0110828AE990E04C
S113020028E9FC0120838DE990E026E0FC012083AD
S113021088E990E0FC01108289E990E027E6FC017E
S113022020838BE290E0FC0110828AE290E028E9CE
S1130230FC01208385E990E026E0FC01208380E92D
S113024090E0FC01108289E290E027E6FC01208323
S1130250789442E050E060E070E089E090E067D19B
S113026080E090E0A8ECB2E48D839E83AF83B887EE
S113027020E030E04AE755E46D817E818F819885E6
S113028087D2DC01CB018F8B988FA98FBA8F20E0A6
S113029030E040E85FE36F89788D898D9A8DF7D1DE
S11302A088232CF481E090E09C8F8B8F3BC020E06E
S11302B03FEF4FE757E46F89788D898D9A8D64D22B
S11302C018163CF520E030E040E251E46D817E8177
S11302D08F8198855DD2DC01CB01BC01CD01DBD1DE
S11302E0DC01CB019C8F8B8F0FC080E991E09E8F46
S11302F08D8F8D8D9E8D0197F1F79E8F8D8F8B8DB8
S11303009C8D01979C8F8B8F8B8D9C8D892B69F78E
S113031013C06F89788D898D9A8DBDD1DC01CB0195
S11303209C8F8B8F8B8D9C8D98A38F8F8F8D98A195
S11303300197F1F798A38F8F40E050E060E070E000
S11303408DE090E0F4D080E090E0A8ECB2E48987FE
S11303509A87AB87BC8720E030E04AE755E469859B
S11303607A858B859C8514D2DC01CB018D879E8791
S1130370AF87B88B20E030E040E85FE36D857E8591
S11303808F85988984D188232CF481E090E09A8B1E
S1130390898B3BC020E03FEF4FE757E46D857E85B6
S11303A08F859889F1D118163CF520E030E040E2C1
S11303B051E469857A858B859C85EAD1DC01CB0182
S11303C0BC01CD0168D1DC01CB019A8B898B0FC0B4
S11303D080E991E09C8B8B8B8B899C890197F1F749
S11303E09C8B8B8B89899A8901979A8B898B8989B4
S11303F09A89892B69F713C06D857E858F859889C5
S11304004AD1DC01CB019A8B898B89899A899E8B8D
S11304108D8B8D899E890197F1F79E8B8D8B80E062
S113042090E0AAE7B4E489839A83AB83BC8320E099
S113043030E04AE755E469817A818B819C81A8D1B7
S1130440DC01CB0189A39AA3ABA3BCA320E030E0D9
S113045040E85FE369A17AA18BA19CA118D188230C
S11304602CF481E090E09EA38DA33BC020E03FEFFD
S11304704FE757E469A17AA18BA19CA185D11816F5
S11304803CF520E030E040E251E469817A818B81DF
S11304909C817ED1DC01CB01BC01CD01FCD0DC010F
S11304A0CB019EA38DA30FC080E991E098A78FA3F1
S11304B08FA198A50197F1F798A78FA38DA19EA16D
S11304C001979EA38DA38DA19EA1892B69F713C0CB
S11304D069A17AA18BA19CA1DED0DC01CB019EA3F2
S11304E08DA38DA19EA19AA789A789A59AA50197F5
S11304F0F1F79AA789A793CFCF93DF931F92CDB734
S1130500DEB7898300008BE990E0FC018081882FAD
S113051090E080729927892BB1F38CE990E02981CE
S1130520FC01208300000F90DF91CF910895CF93B9
S1130530DF93CDB7DEB763970FB6F894DEBF0FBE77
S1130540CDBF898B6A8B4B8B8EE7D6DF8FEFD4DFE1
S113055086E0D2DF8989D0DF80E0CEDF8A89CCDFF4
S11305608B89CADF8989882F90E09C012B5F3E4FDD
S11305708A89882F90E0280F391F8B89882F90E073
S1130580820F931F9195819591099A83898389811B
S11305909A81892F990F990BAFDF8981ADDF8FEE97
S11305A0ABDF80E090E0A8ECB2E48B839C83AD8366
S11305B0BE8320E030E04AE755E46B817C818D8185
S11305C09E81E6D0DC01CB018F839887A987BA8707
S11305D020E030E040E85FE36F81788589859A8583
S11305E056D088232CF481E090E09C878B873BC015
S11305F020E03FEF4FE757E46F81788589859A853E
S1130600C3D018163CF520E030E040E251E46B81A1
S11306107C818D819E81BCD0DC01CB01BC01CD01EC
S11306203AD0DC01CB019C878B870FC080E991E035
S11306309E878D878D859E850197F1F79E878D878F
S11306408B859C8501979C878B878B859C85892BC3
S113065069F713C06F81788589859A851CD0DC0180
S1130660CB019C878B878B859C85988B8F878F8507
S113067098890197F1F7988B8F87000063960FB6DE
S1130680F894DEBF0FBECDBFDF91CF9108952FD078
S113069008F481E0089557D088F09F5790F0B92F5F
S11306A09927B751A0F0D1F0660F771F881F991FC3
S11306B01AF0BA95C9F712C0B13081F05ED0B1E03A
S11306C008955BC0672F782F8827B85F39F0B93F4A
S11306D0CCF3869577956795B395D9F73EF49095C5
S11306E08095709561957F4F8F4F9F4F0895990F17
S11306F00008550FAA0BE0E8FEEF16161706E807E8
S1130700F907C0F012161306E407F50798F0621B08
S1130710730B840B950B39F40A2661F0232B242BDD
S1130720252B21F408950A2609F4A140A6958FEFFC
S1130730811D811D089557FD9058440F551F59F090
S11307405F3F71F04795880F97FB991F61F09F3FBA
S113075079F087950895121613061406551FF2CFE3
S11307604695F1DF08C0161617061806991FF1CF33
S113077086957105610508940895E894BB2766275A
S11307807727CB0197F90895B2DF08F48FEF089526
S11307900BD078C069D028F06ED018F0952309F0FA
S11307A05AC05FC01124EACFC6DFA0F3959FD1F3EE
S11307B0950F50E0551F629FF001729FBB27F00D0B
S11307C0B11D639FAA27F00DB11DAA1F649F662760
S11307D0B00DA11D661F829F2227B00DA11D621FAF
S11307E0739FB00DA11D621F839FA00D611D221F69
S11307F0749F3327A00D611D231F849F600D211D4D
S1130800822F762F6A2F11249F5750408AF0E1F0EF
S113081088234AF0EE0FFF1FBB1F661F771F881F38
S113082091505040A9F79E3F510570F014C0A6CFD7
S11308305F3FECF3983EDCF3869577956795B79523
S1130840F795E7959F5FC1F7FE2B880F911D96954D
S1130850879597F9089597F99F6780E870E060E0BD
S113086008959FEF80EC089500240A941616170645
S113087018060906089500240A941216130614068D
S113088005060895092E0394000C11F4882352F0F0
S1130890BB0F40F4BF2B11F460FF04C06F5F7F4FA8
S10D08A08F4F9F4F0895F894FFCF87
S9030000FC
