S0180000554152545F426567696E6E696E6730322E737265637E
S113000045C000004BC0000049C0000047C00000CC
S113001045C0000043C0000041C000003FC00000D4
S11300203DC000003BC0000039C0000037C00000E4
S113003035C0000033C0000031C000002FC00000F4
S11300402DC000002BC0000047C0000027C00000E6
S113005025C0000023C0000021C000001FC0000014
S11300601DC000001BC0000019C0000017C0000024
S113007015C0000013C0000011C000000FC0000034
S11300800DC000000BC0000009C0000011241FBEF9
S1130090CFEFD0E1DEBFCDBF02D07BC0B1CFCF93D5
S11300A0DF93CDB7DEB78BE290E0FC0110828AE2E9
S11300B090E028E9FC01208385E990E026E0FC013A
S11300C0208380E990E0FC01108289E290E027E639
S11300D0FC0120837894FFCF1F920F9200905F0061
S11300E00F92112400905B000F922F938F939F9394
S11300F0EF93FF93CF93DF931F92CDB7DEB78CE2DC
S113010090E0FC01808189838981813638F089817E
S11301108B3720F489818052898309C08981813495
S113012030F089818B3518F48981805E89830000E1
S11301308BE290E0FC018081882F90E08072992707
S1130140892BB1F38CE290E02981FC01208300002B
S11301508BE290E0FC018081882F90E080729927E7
S1130160892BB1F38CE290E02AE0FC0120830000AB
S11301700F90DF91CF91FF91EF919F918F912F91EC
S11301800F9000925B000F9000925F000F901F9001
S10901901895F894FFCF5E
S9030000FC
